:1000000000000020F5040000BD430000C3430000D1
:10001000C9430000CF430000D543000000000000AA
:100020000000000000000000000000006505000066
:10003000DB430000000000000B0600006B06000020
:10004000AD3B0000BB3B0000C93B0000D73B0000BC
:10005000E53B0000F33B0000013C00000F3C0000CA
:100060001D3C00002B3C0000393C0000473C0000D8
:10007000553C0000633C0000713C00007F3C0000E8
:100080008D3C0000E1430000E7430000ED43000029
:10009000F3430000F9430000FF4300000544000063
:1000A0000B44000011440000174400001D440000F0
:1000B00023440000294400002F4400009B3C000022
:1000C00035440000A93C00003B440000B73C000060
:1000D00041440000C53C0000474400004D4400007E
:1000E00053440000594400005F4400006544000090
:1000F0006B44000071440000774400007D44000020
:1001000005050000050500000505000005050000C7
:1001100083440000894400008F440000954400009F
:100120009B440000A1440000A7440000AD4400002F
:10013000B3440000B9440000BF440000C5440000BF
:10014000CB440000D1440000D33C0000D744000061
:10015000E13C0000DD440000E3440000E94400000D
:10016000EF440000F5440000FB440000014500009E
:10017000074500000D45000013450000194500002B
:100180001F450000050500000505000005050000ED
:100190000505000005050000050500000505000037
:1001A0000505000005050000050500000505000027
:1001B0000505000005050000050500000505000017
:1001C0000505000005050000050500000505000007
:1003F000050500000505000005050000FFFFFFFFE3
:10040000FFFFFFFFFFFFFFFFFFFFFFFFFEFFFFFFFD
:1004400010B5054C237833B9044B13B10448AFF30E
:1004500000800123237010BDA011002000000000C7
:10046000180D010008B5034B1BB103490348AFF356
:10047000008008BD00000000A4110020180D01003C
:10048000154B002B08BF134B9D46A3F5803A002166
:100490008B460F461348144A121A0CF0CDFF0F4B2F
:1004A000002B00D098470E4B002B00D0984700201F
:1004B000002104000D000D48002802D00C480CF06B
:1004C00099FC0CF0E1FC2000290003F043FB0CF048
:1004D0009DFC00BF0000080000000020000000009C
:1004E000D9360000A0110020CC6C0020F5CD000012
:1004F0002DCE000072B607F08BFF07F023FF62B627
:10050000FFF7BEFFFFF7FEBF80F309887047EFF3E8
:1005100009807047684680F309885A480078C00708
:1005200014BF0220032080F314887047DFF858C1FD
:10053000EFF305831B0618BF6047EFF31483DB0757
:1005400008BF604700DF7047DFF840C1EFF3058365
:100550001B0618BF6047EFF31483DB0708BF604733
:1005600000DF7047EFF30980816911F8021CE1BBDD
:1005700090E80F1010B5E047BDE81040EFF3098C8C
:100580008CE80700424B93E80600914208BF704791
:1005900041B91EF0100F16D13E49086820F0010045
:1005A000086010E01EF0100F06BF2CED108A01202D
:1005B000002081F825002CE9F00FC1F828C00CB408
:1005C00009F004FB0CBC1A60D2F828C0BCE8F00F9C
:1005D00092F8250000280EBF6FF0020E6FF0120E89
:1005E000BCEC108A8CF30988704710B52A4A12684F
:1005F000914209D8294C54F8214090E80F10A047A7
:10060000EFF3098C8CE80F0010BD10B509F062FA09
:10061000BDE810401E4B93E80600914208BF7047AA
:10062000EFF3098C1EF0100F06BF2CED108A01208D
:10063000002081F825002CE9F00FC1F828C00CB487
:1006400009F0C4FA0CBC1A60D2F828C0BCE8F00F5C
:1006500092F8250000280EBF6FF0020E6FF0120E08
:10066000BCEC108A8CF30988704710B509F090FA39
:10067000FFF7CEBF10B509F089FA09F089FAFFF744
:10068000C7BF000098FA000059940000759400005C
:10069000686C002034EF00E000000000FCFFFFFF6A
:1006A00081F0004102E000BF83F0004330B54FEA23
:1006B00041044FEA430594EA050F08BF90EA020F90
:1006C0001FBF54EA000C55EA020C7FEA645C7FEA23
:1006D000655C00F0E2804FEA5454D4EB5555B8BF46
:1006E0006D420CDD2C4480EA020281EA030382EAB7
:1006F000000083EA010180EA020281EA0303362D49
:1007000088BF30BD11F0004F4FEA01314FF4801C1B
:100710004CEA113102D0404261EB410113F0004F2D
:100720004FEA03334CEA133302D0524263EB4303E4
:1007300094EA050F00F0A780A4F10104D5F1200E82
:100740000DDB02FA0EFC22FA05F2801841F10001DD
:1007500003FA0EF2801843FA05F359410EE0A5F1B1
:1007600020050EF1200E012A03FA0EFC28BF4CF0E2
:10077000020C43FA05F3C01851EBE37101F0004598
:1007800007D54FF0000EDCF1000C7EEB00006EEBA5
:100790000101B1F5801F1BD3B1F5001F0CD349082F
:1007A0005FEA30004FEA3C0C04F101044FEA445286
:1007B00012F5800F80F09A80BCF1004F08BF5FEA0D
:1007C000500C50F1000041EB045141EA050130BDED
:1007D0005FEA4C0C404141EB010111F4801FA4F190
:1007E0000104E9D191F0000F04BF01460020B1FAE5
:1007F00081F308BF2033A3F10B03B3F120020CDA1D
:100800000C3208DD02F1140CC2F10C0201FA0CF0FA
:1008100021FA02F10CE002F11402D8BFC2F1200C5F
:1008200001FA02F120FA0CFCDCBF41EA0C01904015
:10083000E41AA2BF01EB0451294330BD6FEA04045E
:100840001F3C1CDA0C340EDC04F11404C4F1200249
:1008500020FA04F001FA02F340EA030021FA04F35B
:1008600045EA030130BDC4F10C04C4F1200220FAB2
:1008700002F001FA04F340EA0300294630BD21FAF0
:1008800004F0294630BD94F0000F83F4801306BFB6
:1008900081F480110134013D4EE77FEA645C18BFAA
:1008A0007FEA655C29D094EA050F08BF90EA020F41
:1008B00005D054EA000C04BF1946104630BD91EA39
:1008C000030F1EBF0021002030BD5FEA545C05D13C
:1008D0004000494128BF41F0004130BD14F580047B
:1008E0003CBF01F5801130BD01F0004545F0FE41EF
:1008F00041F470014FF0000030BD7FEA645C1ABF24
:10090000194610467FEA655C1CBF0B46024650EA5A
:10091000013406BF52EA033591EA030F41F4002186
:1009200030BD00BF90F0000F04BF0021704730B50C
:100930004FF4806404F132044FF000054FF00001E1
:1009400050E700BF90F0000F04BF0021704730B5A2
:100950004FF4806404F1320410F0004548BF404277
:100960004FF000013EE700BF42004FEAE2014FEACC
:1009700031014FEA02701FBF12F07F4393F07F4FA7
:1009800081F06051704732F07F4208BF704793F0AA
:100990007F4F04BF41F40021704730B54FF46074BD
:1009A00001F0004521F000411CE700BF50EA0102C0
:1009B00008BF704730B54FF000050AE050EA010269
:1009C00008BF704730B511F0004502D5404261EBD9
:1009D00041014FF4806404F132045FEA915C3FF41A
:1009E000D8AE4FF003025FEADC0C18BF03325FEAB7
:1009F000DC0C18BF033202EBDC02C2F1200300FA68
:100A000003FC20FA02F001FA03FE40EA0E0021FA8C
:100A100002F11444BDE600BF70B54FF0FF0C4CF47A
:100A2000E06C1CEA11541DBF1CEA135594EA0C0F2C
:100A300095EA0C0F00F0DEF82C4481EA030621EA67
:100A40004C5123EA4C5350EA013518BF52EA0335A2
:100A500041F4801143F4801338D0A0FB02CE4FF054
:100A60000005E1FB02E506F00042E0FB03E54FF084
:100A70000006E1FB03569CF0000F18BF4EF0010E7C
:100A8000A4F1FF04B6F5007F64F5407404D25FEA78
:100A90004E0E6D4146EB060642EAC62141EA55512B
:100AA0004FEAC52040EA5E504FEACE2EB4F1FD0C6D
:100AB00088BFBCF5E06F1ED8BEF1004F08BF5FEAEB
:100AC000500E50F1000041EB045170BD06F000469D
:100AD00046EA010140EA020081EA0301B4EB5C044A
:100AE000C2BFD4EB0C0541EA045170BD41F4801142
:100AF0004FF0000E013C00F3AB8014F1360FDEBF67
:100B0000002001F0004170BDC4F10004203C35DA42
:100B10000C341BDC04F11404C4F1200500FA05F3C5
:100B200020FA04F001FA05F240EA020001F0004266
:100B300021F0004110EBD37021FA04F642EB0601DC
:100B40005EEA430E08BF20EAD37070BDC4F10C0406
:100B5000C4F1200500FA04F320FA05F001FA04F2CA
:100B600040EA020001F0004110EBD37041F10001B6
:100B70005EEA430E08BF20EAD37070BDC4F12005C1
:100B800000FA05F24EEA020E20FA04F301FA05F229
:100B900043EA020321FA04F001F0004121FA04F2D1
:100BA00020EA020000EBD3705EEA430E08BF20EAA1
:100BB000D37070BD94F0000F0FD101F000464000DB
:100BC00041EB010111F4801F08BF013CF7D041EA5D
:100BD000060195F0000F18BF704703F00046520061
:100BE00043EB030313F4801F08BF013DF7D043EA32
:100BF0000603704794EA0C0F0CEA135518BF95EAE8
:100C00000C0F0CD050EA410618BF52EA4306D1D16E
:100C100081EA030101F000414FF0000070BD50EA8D
:100C2000410606BF1046194652EA430619D094EA17
:100C30000C0F02D150EA013613D195EA0C0F05D101
:100C400052EA03361CBF104619460AD181EA030155
:100C500001F0004141F0FE4141F470014FF000000D
:100C600070BD41F0FE4141F4780170BD70B54FF0A8
:100C7000FF0C4CF4E06C1CEA11541DBF1CEA135528
:100C800094EA0C0F95EA0C0F00F0A7F8A4EB05040A
:100C900081EA030E52EA03354FEA013100F0888001
:100CA0004FEA03334FF0805545EA131343EA1263CA
:100CB0004FEA022245EA111545EA10654FEA00267F
:100CC0000EF000419D4208BF964244F1FD0404F538
:100CD000407402D25B084FEA3202B61A65EB030594
:100CE0005B084FEA32024FF480104FF4002CB6EB51
:100CF000020E75EB030E22BFB61A754640EA0C00D1
:100D00005B084FEA3202B6EB020E75EB030E22BF10
:100D1000B61A754640EA5C005B084FEA3202B6EB51
:100D2000020E75EB030E22BFB61A754640EA9C0010
:100D30005B084FEA3202B6EB020E75EB030E22BFE0
:100D4000B61A754640EADC0055EA060E18D04FEA9E
:100D5000051545EA16754FEA06164FEAC30343EA3E
:100D600052734FEAC2025FEA1C1CC0D111F4801F0B
:100D70000BD141EA00014FF000004FF0004CB6E704
:100D800011F4801F04BF01430020B4F1FD0C88BFA3
:100D9000BCF5E06F3FF6AFAEB5EB030C04BFB6EBAE
:100DA000020C5FEA500C50F1000041EB045170BDA1
:100DB0000EF0004E4EEA113114EB5C04C2BFD4EBCE
:100DC0000C0541EA045170BD41F480114FF0000E52
:100DD000013C90E645EA060E8DE60CEA135594EACE
:100DE0000C0F08BF95EA0C0F3FF43BAF94EA0C0FD1
:100DF0000AD150EA01347FF434AF95EA0C0F7FF446
:100E000025AF104619462CE795EA0C0F06D152EA99
:100E100003353FF4FDAE1046194622E750EA41067D
:100E200018BF52EA43067FF4C5AE50EA41047FF48E
:100E30000DAF52EA43057FF4EBAE12E74FF0FF3CF3
:100E400006E000BF4FF0010C02E000BF4FF0010CC4
:100E50004DF804CD4FEA410C7FEA6C5C4FEA430C3D
:100E600018BF7FEA6C5C1BD001B050EA410C0CBF8C
:100E700052EA430C91EA030F02BF90EA020F0020EE
:100E8000704710F1000F91EA030F58BF994208BF55
:100E900090422CBFD8176FEAE37040F00100704712
:100EA0004FEA410C7FEA6C5C02D150EA013C07D169
:100EB0004FEA430C7FEA6C5CD6D152EA033CD3D0B4
:100EC0005DF8040B704700BF8446104662468C46AE
:100ED0001946634600E000BF01B5FFF7B7FF0028E1
:100EE00048BF10F1000F01BD4DF808EDFFF7F4FF0A
:100EF0000CBF012000205DF808FB00BF4DF808ED95
:100F0000FFF7EAFF34BF012000205DF808FB00BFB7
:100F10004DF808EDFFF7E0FF94BF012000205DF8D9
:100F200008FB00BF4DF808EDFFF7CEFF94BF01208E
:100F300000205DF808FB00BF4DF808EDFFF7C4FF87
:100F400034BF012000205DF808FB00BF4FEA410CD0
:100F50007FEA6C5C02D150EA013C0AD14FEA430CB3
:100F60007FEA6C5C02D152EA033C02D14FF00000F0
:100F700070474FF0010070474A0011D212F500127D
:100F800011D20DD56FF47873B3EB62520ED44FEAE1
:100F9000C12343F0004343EA505323FA02F0704761
:100FA0004FF00000704750EA013002D14FF0FF309F
:100FB00070474FF0000070474FEA4102B2F1E04342
:100FC00024BFB3F5001CDCF1FE5C0DD901F0004C30
:100FD0004FEAC0024CEA5070B2F1004F40EB830080
:100FE00008BF20F00100704711F0804F21D113F1AC
:100FF0003872BCBF01F00040704741F480114FEAE5
:101000005252C2F11802C2F1200C10FA0CF320FA6D
:1010100002F018BF40F001004FEAC1234FEAD3238A
:1010200003FA0CFC40EA0C0023FA02F34FEA4303F4
:10103000CCE77FEA625307D150EA01331EBF4FF07D
:10104000FE4040F44000704701F0004040F0FE4098
:1010500040F40000704700BF53B94AB9002908BFE7
:1010600000281CBF4FF0FF314FF0FF3001F0F8B8FF
:10107000ADF1080C6DE904CE00F006F8DDF804E0EF
:10108000DDE9022304B070472DE9F047089E0446CD
:101090008846002B4BD18A42154667D9B2FA82F2B4
:1010A0004AB1C2F1200701FA02F320FA07F795408E
:1010B00047EA030894404FEA154E230CB8FBFEF7AD
:1010C0001FFA85FC0EFB178843EA084307FB0CF167
:1010D000994209D9EB1807F1FF3080F01B81994242
:1010E00040F21881023F2B445B1AA4B2B3FBFEF01E
:1010F0000EFB103344EA034400FB0CFCA44509D961
:101100002C1900F1FF3380F00781A44540F20481DF
:1011100002382C4440EA0740A4EB0C0400271EB11F
:10112000D4400023C6E900433946BDE8F0878B422E
:1011300009D9002E00F0EB800027C6E900013846EF
:101140003946BDE8F087B3FA83F7002F47D18B42C9
:1011500002D3824200F2FA80841A61EB0303012079
:101160009846002EE0D0C6E90048DDE702B9FFDE70
:10117000B2FA82F2002A40F08F80491B4FEA154EE6
:101180001FFA85F80127B1FBFEFC230C0EFB1C1196
:1011900043EA014308FB0CF1994207D9EB180CF123
:1011A000FF3002D2994200F2CD808446591AA3B290
:1011B000B1FBFEF00EFB101443EA044408FB00F8F8
:1011C000A04507D92C1900F1FF3302D2A04500F247
:1011D000B6801846A4EB080440EA0C409FE7C7F12C
:1011E000200CBB4022FA0CFE4EEA030E01FA07F473
:1011F00020FA0CF521FA0CF34FEA1E482543B3FB05
:10120000F8F92C0C08FB19331FFA8EFA44EA034351
:1012100009FB0AF49C4202FA07F200FA07F10BD923
:101220001EEB030309F1FF3080F087809C4240F2FF
:101230008480A9F1020973441B1BADB2B3FBF8F023
:1012400008FB103345EA034400FB0AFAA24508D91B
:101250001EEB040400F1FF336BD2A24569D90238BA
:10126000744440EA0940A0FB0289A4EB0A044C45FF
:10127000C2464B4654D351D0002E69D0B1EB0A057B
:1012800064EB030404FA0CFCFD40FC404CEA050549
:10129000C6E90054002747E7C2F1200320FA03F70C
:1012A000954001FA02F021FA03F34FEA154E384354
:1012B000010CB3FBFEF71FFA85F80EFB173341EA6A
:1012C000034107FB08F38B4204FA02F407D96918BB
:1012D00007F1FF3C2FD28B422DD9023F2944CB1A74
:1012E00081B2B3FBFEF00EFB103341EA034100FB79
:1012F00008F38B4207D9691800F1FF3C17D28B42E3
:1013000015D902382944C91A40EA07473BE737464E
:10131000304609E70746E7E61846FBE64145ABD20B
:10132000B8EB020A69EB0E0201381346A4E76046E7
:10133000E9E7184695E76746D1E781467CE702383A
:101340002C4447E7ACF1020C2B442FE7384608E762
:101350003746E9E603685A004CBF43F0004323F0E8
:1013600000431844704700BF61B32DE9F84F01F105
:10137000FF3A90460646D146002707EB090404EBE6
:10138000D4746410E50071190846FFF7E3FFA24525
:10139000834605F10800304409D0FFF7DBFFC34561
:1013A00000F1FF3005D8404509D2671CE5E7C34589
:1013B00005D9A74202D004F1FF39DEE70021084633
:1013C000BDE8F88F08467047012807D0022807D0EB
:1013D000044B00280CBF1846002070470248704795
:1013E00002487047B51A0000B91A0000BD1A000083
:1013F00030B5254B83B004468D1E4BB301A928465A
:10140000AFF30080F0B101992A46FFF7ADFF014626
:10141000C0B1FFF79FFF4B68A064012B2ED0002BBB
:1014200001F1040026DBFFF795FF0023C4E9130355
:101430000368002B12DBFFF78DFF002320611846A5
:1014400003B030BD002323610923184603B030BD2B
:101450000E490F48091AC9100191D5E7C3F303607B
:10146000FFF7B2FF002814BF0023092320611846AC
:1014700003B030BD0123C4E91303D9E7002323617E
:101480000523184603B030BD00000000A815010078
:10149000501101000368DA0710B5044606D49B0713
:1014A00000F1480009D500F05FFC2368590709D511
:1014B0001A070ED5DB0613D510BD00F04DFC2368CE
:1014C0005907F5D404F1D00000F056FC23681A0740
:1014D000F0D404F5A87000F057FC2368DB06EBD4C9
:1014E00004F5E870BDE8104000F092BC036803B159
:1014F00003441846704700BF09207047704700BF7B
:1015000070B504460D4608E02B6C63612A462369DA
:10151000214601209847082808D1296C2046FFF76A
:1015200067FF06460028EFD00BF03EFC0728FBD1F2
:101530003046296CFFF7E2FF281D00F001FC00BFD8
:101540002DE9F0470C1D054617460FCCADF5727D11
:1015500003AE0FC60FCC0FC60FCC0FC694E80F001A
:1015600002ACD5F80C80D5F8189086E80F0000235F
:10157000236021E0236C6B614FF4F07221467AA85E
:1015800000F070FE2B697AAA294630469847889B5E
:10159000CDE900498246636431462B462A46012044
:1015A000C0470746F8B94FF4F0727AA9204600F018
:1015B00059FEBAF1080F1CD1216C2846FFF718FF1D
:1015C000002F08BF0926074618BF0A260028D1D0D9
:1015D000A36B46F01001CDE900492A46636401205F
:1015E0002B46C04700B1092738460DF5727DBDE88E
:1015F000F087BAF1070FF6D13846216CFFF77EFF6E
:1016000003A800F09DFB00BF406C7047F0B5CB6BAA
:101610000B640D1D0F4606460FCDF9B001AC0FC48B
:101620000FCD0FC40FCD0FC495E80F004FF0FF355D
:1016300084E80F00009506E033696A463146984712
:101640000828044608D110993046FFF7D1FE00283B
:10165000F2D0092079B0F0BD6846FFF71BFF062CD9
:10166000F7D139463046FFF74BFF00BF30B4DD6B92
:10167000C160826119461D64002230BC60E700BF72
:1016800070B5C66843690B64BEB903690A4604466F
:101690000D46014602209847072807D0082803D1A5
:1016A00029462046FFF72CFF0BF07EFB3046296CC5
:1016B000FFF724FF281D00F043FB0122FFF740FF46
:1016C0000BF072FBC2681AB1CA6B0A64002237E7DA
:1016D0009CE700BF704700BF836813B1014601203B
:1016E00018477047042907D8DFE801F00308060807
:1016F00008000BB90F2A03D9022070470120704758
:1017000000EB820218465368009A1360704700BFCE
:1017100010B584B0002303AC0A4600941946FFF7C5
:10172000E1FF039804B010BD042907D8DFE801F0F9
:101730000308060808000BB90F2A03D902207047D6
:101740000120704700EB8200009A12684260184640
:10175000704700BF10B584B004AC002344F8042DDA
:101760000A4600941946FFF7DFFF04B010BD00BF22
:10177000F0B5D36B1364151D07460E460FCDADF5BE
:101780000F7D17AC0FC40FCD0FC40FCD0FC495E85C
:101790000F004FF0FF3584E80F00169510E016A8F3
:1017A000FFF7D8FF314616A8B84716AA694678B998
:1017B000049B08209847052804460AD0092807D02A
:1017C00026996846FFF714FE6A460C210028E6D0E9
:1017D000092416A8FFF75EFE20460DF50F7DF0BD2B
:1017E0002DE9F04F0D46C96C89B00C1D164600F06E
:1017F000030B0A6806941F46002B68D0130CD9B25D
:1018000012048DF81D30022304EB810405928DF83B
:101810001C302B6DBBF1020F08BFAC6B13F0010342
:1018200046D1019300F008030093D4F80090B9F179
:10183000000F00F0F380022F45D0B4F80090B4F808
:1018400002800434AB6C28F0010A0F2130469A4420
:10185000FFF75EFF824534D829F0010353448342E9
:1018600094BF002001204FEA480808F0020809F060
:10187000010948EA0908B8F1010F3AD031D3B8F1AB
:10188000020F1AD1236823F0004ABBF1000F66D182
:1018900030B1009A002A6CD0BAF1000F00F09080AD
:1018A000002B00DA04340AF1010304EB8304BCE7E3
:1018B000304605A900F046FB78B1092009B0BDE823
:1018C000F08F0020CFE7D4F804800834BAE7120282
:1018D00003230592ADF81C309BE7082009B0BDE852
:1018E000F08FBBF1000F02D0002840F0B480043428
:1018F0009BE7BBF1000F18D1A8B1D4E90023991CD4
:101900004FEAD272D9D005F158010133049100F0A9
:10191000B580201DFFF7EAFD04AB01462846AFF372
:101920000080002867D108347FE70D213046D5F8C4
:101930002080FFF7EDFE8045F5D1AB6A9C42F2D1E5
:101940002046FFF707FD0F2102463046FFF702FF52
:1019500030462A460021FFF7FDFE0720AEE70D21A5
:101960003046D5F82080FFF7D3FE804532D023687B
:1019700096E7BAF1000F23D005F1580304F10408EB
:10198000CDF808B0DDF800900397A3461C4602E0AE
:101990005745B94640D040460494FFF7A7FD04AB35
:1019A000014600222846AFF3008009F1010708F143
:1019B00004080028ECD0D1455C46DDE902B7D6D159
:1019C00030460D21FFF7A4FE049B2862C5E90934C7
:1019D000062073E7AB6A9C42C9D104224FF000088D
:1019E000A318C5E90AA8C5E90C23236843454DDBC4
:1019F0000123019357E780460D213046FFF788FE0B
:101A0000B8F1020F28623ED12B46049A43F82C2FDE
:101A10006B62AC62062051E75C46D1E705A930460F
:101A200000F090FA00287FF448AF019B002B3FF4B0
:101A300054AF0F213046FFF76BFE0E2102463046B1
:101A4000FFF788FE30461A4A0F21FFF783FE072072
:101A500009B0BDE8F08F2046FFF77CFC0434074650
:101A6000AC632846AFF3008000283FF426AF304631
:101A70003A460F21FFF76EFE07201FE730460D2183
:101A8000FFF746FE2862049B6B62C2E70AF1010081
:101A900004EB8000FFF75EFC0F2102463046FFF7A3
:101AA00059FE30462A464146FFF754FE072005E717
:101AB00000000000002393E6012391E602238FE655
:101AC0002DE9F0410546C4B0042906D8DFE801F04D
:101AD0004D2B05030900032B5FD0022044B0BDE865
:101AE000F081002BF9D1102AF7D82B68DC0600F121
:101AF000F48022AC2046019200F094F9A86B019A80
:101B00000023012606FA03F1114203D0016844F8CC
:101B1000231004300133042BF4D1A863204600F0D5
:101B200077F90020DAE7012B4FEA124697B252D03C
:101B3000052BD2D106EB0708B8F1200FCDD80F2E18
:101B400040F29980B846002F40F0DB80AA6BAA6370
:101B50000F2E40F2BE80B8F1000F02D002A800F0B4
:101B60000BF9002044B0BDE8F081002BB5D1AC6B7F
:101B700097B2281D012606FA03F1394203F1010349
:101B800002D0216801600434102B00F10400F2D16E
:101B900012F40050E5D1AC63A0E7160C97B2F3192C
:101BA000102B9AD82B681A075DD422AC204600F07F
:101BB0000DF904EBC601AB6B3FB103EBC70218682C
:101BC00041F8040B04339342F9D12046AB6300F093
:101BD000DBF8002082E7F219102A3FF67EAF0F2EC5
:101BE0003FF67BAF2A68D10708D5284622F00302CA
:101BF00040F8482B019300F0B3F8019B019322AC0D
:101C0000204600F0ADF8A96B019B002F00F09580F5
:101C10007F0004EBC6044FF00008043C01EB870290
:101C200051F8040B44F8040F9142F9D1B8F1000FB8
:101C30000FD002AC102E314638BF102104EBC10189
:101C4000843902EBC80452F8040B41F8040F9442A3
:101C5000F9D1012B7FF47BAF22AC0432AA6320467A
:101C600000F07AF87DE723F008032B6005F5A870F3
:101C700000F0ACF899E7B8F1100F2A6843D9D00703
:101C8000A8F110080BD5284622F0010242F002020A
:101C900040F8482B019300F06BF82A68019B51072C
:101CA00025D40F2E04D822A8019300F061F8019BDF
:101CB000019302AC204600F063F8C6F11001002940
:101CC000AA6B019BB6DD22AC4F0004EBC6041146A3
:101CD000A3E722A800F048F83DE723F010032B60AB
:101CE00005F5E870019200F09DF8019A01E7284699
:101CF00022F0040240F8D02B019300F041F8019B40
:101D0000CFE72A68CBE7D0070AD5284622F00102A0
:101D100042F0020240F8482B019300F029F8019BA1
:101D2000019322AC204600F023F8B846A96B019B32
:101D3000002F7FF46DAF0A4609E70A468DE700BF22
:101D400000F1340191E838009C46A6464CF8045D49
:101D500090E8FF0FE54600BD90EC210B704700BFF7
:101D600080EC210B704700BF90EC200B704700BF48
:101D700080EC200B704700BFD0EC200B704700BFF9
:101D8000C0EC200B704700BFF0EC0201F0EC021138
:101D9000F0EC0221F0EC0231F0EC0241F0EC0251E7
:101DA000F0EC0261F0EC0271F0EC0281F0EC0291D7
:101DB000F0EC02A1F0EC02B1F0EC02C1F0EC02D1C7
:101DC000F0EC02E1F0EC02F1704700BFE0EC020140
:101DD000E0EC0211E0EC0221E0EC0231E0EC024127
:101DE000E0EC0251E0EC0261E0EC0271E0EC028117
:101DF000E0EC0291E0EC02A1E0EC02B1E0EC02C107
:101E0000E0EC02D1E0EC02E1E0EC02F1704700BF4F
:101E1000B0FC0181B0FC0191B0FC01A1B0FC01B1AA
:101E2000704700BFA0FC0181A0FC0191A0FC01A1B2
:101E3000A0FC01B1704700BFEC4600B52DE9005091
:101E40002DE9FF1F4FF000032DE90C0001A9FFF75A
:101E5000DDFBDDF840E012B0704700BFEC4600B596
:101E60002DE900502DE9FF1F4FF000032DE90C0074
:101E700001A9FFF705FCDDF840E012B0704700BF94
:101E8000EC4600B52DE900502DE9FF1F4FF000038F
:101E90002DE90C0001A9FFF715FCDDF840E012B0B8
:101EA000704700BFEC4600B52DE900502DE9FF1F3B
:101EB0004FF000032DE90C0001ABFFF7D7FBDDF875
:101EC00040E012B0704700BFEC4600B52DE900506D
:101ED0002DE9FF1F4FF000032DE90C0001AAFFF7C9
:101EE00047FCDDF840E012B0704700BF027A82B9CB
:101EF000437AABB14268013B10B4437213680321CB
:101F0000141D01721A02446002605DF8044B180E41
:101F100070470368013A02721A020260180E704795
:101F2000B020704700B585B003AA0023009219467F
:101F30000C22FFF7D7FB039805B05DF804FB00BF48
:101F4000F0E700BF2DE9F043054685B00E464FF09F
:101F500000083046FFF7CAFFB028044600F0B18001
:101F6000070620D500F0F003802B65D0902B36D0EB
:101F7000A02B78D0B02B47D0C02B00F08A8000F087
:101F8000F803D02B0BD100F00702013242F40022FB
:101F9000052301212846FFF793FD0028D9D0092009
:101FA00005B0BDE8F0830DF10C0900231946870048
:101FB000CDF800900D222846FFF794FBFFB2039B5B
:101FC000CDF80090043760064CBFDF1BFF180023DC
:101FD00019460D2228460397FFF7A6FBB9E700F044
:101FE0000D030D2BDBD003AF002300F00F021946C9
:101FF00000972846FFF776FB0023009719460D222D
:102000002846FFF791FBA4E7B1285FD0B22800F083
:10201000CC80B3287ED000F0FC03B42BBFD000F0FE
:1020200007020132012342F4002219462846FFF735
:1020300047FD00288DD0B2E73046FFF757FF240256
:102040000443B4F5004FAAD024010023A2B21946DC
:102050002846FFF735FD0028A1D114F4004F18BF22
:102060004FF0010875E7C24302F007034FF47F62A7
:102070001A41010702F47F624FF0000348BF42F4A7
:10208000804219462846FFF71BFD00283FF461AF48
:1020900085E7C62851D0C7285AD000F0F803C02BD6
:1020A00069D0C82875D0C9287FF479AF3046FFF7CA
:1020B0001DFF020300F00F0002F470220130024302
:1020C00066E7B8F1000F14D0002069E73046FFF74B
:1020D0000DFF00283FF463AF10F0F0037FF45FAF13
:1020E000024619462846FFF7EBFC00283FF431AFC3
:1020F00055E703AC43460E22414600942846FFF7BD
:10210000F1FA0094284643460F224146FFF70CFBA4
:10211000404645E73046FFF7E9FE010300F00F00B7
:1021200001F47021421C01230A4328461946FFF797
:10213000C7FC00283FF40DAF31E73046FFF7D6FE6D
:10214000010300F00F0001F47021421C0323EBE7B0
:102150003046FFF7CBFE024600283FF420AF10F0D8
:10216000F0037FF41CAF04212846FFF7A9FC0028E8
:102170003FF4EFAE13E700F00F020132032342F405
:10218000202219462846FFF79BFC00283FF4E1AEC9
:1021900005E73046FFF7AAFE00F0F00200F00F035B
:1021A0001032013343EA0232F2E600230DF10C094A
:1021B0000D221946CDF800902846FFF793FA3046D5
:1021C000FFF794FE02064FF002070CD5039B00F0C8
:1021D0007F00B840034430460393FFF787FE0306B1
:1021E00007F10707F2D4039BCDF8009000F07F04BD
:1021F00003F50172BC400023144419460D22284601
:102200000394FFF791FAA4E610B5C36C84B05A6842
:1022100003208DF80C00DC798DF80D401202083394
:10222000084601A901920293FFF78CFE04B010BD8D
:1022300008B5FFF785FE806C08BD00BF08B5FFF745
:102240007FFEC06CC37900EB8300083008BD00BF7F
:1022500008B50AF0A9FD00BF08B5FFF7F9FF00BFF8
:10226000704700BF844641EA000313F003036DD1B9
:10227000403A41D351F8043B40F8043B51F8043B49
:1022800040F8043B51F8043B40F8043B51F8043B50
:1022900040F8043B51F8043B40F8043B51F8043B40
:1022A00040F8043B51F8043B40F8043B51F8043B30
:1022B00040F8043B51F8043B40F8043B51F8043B20
:1022C00040F8043B51F8043B40F8043B51F8043B10
:1022D00040F8043B51F8043B40F8043B51F8043B00
:1022E00040F8043B51F8043B40F8043B51F8043BF0
:1022F00040F8043B403ABDD2303211D351F8043B90
:1023000040F8043B51F8043B40F8043B51F8043BCF
:1023100040F8043B51F8043B40F8043B103AEDD23E
:102320000C3205D351F8043B40F8043B043AF9D28F
:10233000043208D0D2071CBF11F8013B00F8013B62
:1023400001D30B8803806046704700BF082A13D36F
:102350008B078DD010F003038AD0C3F10403D21A87
:10236000DB071CBF11F8013B00F8013B80D331F8BB
:10237000023B20F8023B7BE7043AD9D3013A11F83B
:10238000013B00F8013BF9D20B7803704B784370A6
:102390008B788370604670470000000000000000EA
:1023A00001F0FF01102A2BDB10F0070F08D010F806
:1023B000013B013A8B422DD010F0070F42B3F6D10A
:1023C000F0B441EA012141EA014122F007047FF023
:1023D00000070023F0E80256083C85EA010586EA7A
:1023E000010685FA47F5A3FA87F586FA47F6A5FAB6
:1023F00087F68EB9EED1F0BC01F0FF0102F00702C2
:1024000032B110F8013B013A83EA010313B1F8D16C
:102410000020704701387047002D06BF354603384D
:10242000073815F0010F07D1013015F4807F02BF86
:10243000013015F4C03F0130F0BC0138704700BFD7
:1024400090F800F06DE9024520F007016FF0000CF4
:1024500010F0070491F820F040F049804FF000049C
:102460006FF00700D1E9002391F840F000F1080077
:1024700082FA4CF2A4FA8CF283FA4CF3A2FA8CF3AF
:102480004BBBD1E9022382FA4CF200F10800A4FA16
:102490008CF283FA4CF3A2FA8CF3E3B9D1E904236A
:1024A00082FA4CF200F10800A4FA8CF283FA4CF3A1
:1024B000A2FA8CF37BB9D1E9062301F1200182FA5B
:1024C0004CF200F10800A4FA8CF283FA4CF3A2FA61
:1024D0008CF3002BC6D0002A04BF04301A4612BA6F
:1024E000B2FA82F2FDE8024500EBD2007047D1E972
:1024F000002304F00305C4F100004FEAC50514F001
:10250000040F91F840F00CFA05F562EA05021CBFD1
:1025100063EA050362464FF00004A9E780B586B080
:1025200000AF786026497A6813465B0013449B002D
:102530000B4409331B78002B27D107F108031846F9
:1025400008F08AF90323FB721D497A6813465B0081
:1025500013449B000B441B6807F108021146184600
:1025600008F08CF916497A6813465B0013449B0007
:102570000B44093303221A707A6813465B00134434
:102580009B000F4A13447B6115E00D497A6813469E
:102590005B0013449B000B4409331B78032B08D1C9
:1025A0007A6813465B0013449B00054A13447B6121
:1025B00001E000237B617B6918461837BD4680BD6A
:1025C0004004002080B485B000AFF8600B467A600C
:1025D000FB7200BF1437BD465DF8047B70470000F6
:1025E00090B58BB000AFF860B9601346FB71FB6823
:1025F000FB61FB69002B3AD0FB691B7A3B7500231A
:10260000BB7500237B75FB691B680121184608F028
:102610007DF9FB691868FB695B6807F114021946CC
:1026200008F094F9FB691A68FB695B681946104663
:1026300008F0A8F9FB691A68FB695B68194610463F
:1026400008F0C4F903467B837B8B07EE903AF8EEE3
:10265000677A17EE900AFEF787F90DA3D3E90023F6
:10266000FEF7DAF903460C46C7E9083405E04FF0F7
:1026700000034FF00004C7E90834BA68D7E908340A
:10268000C2E9003400BF2C37BD4690BDAFF30080D7
:10269000100010001000F03E80B483B000AF7860EE
:1026A00000BF0C37BD465DF8047B704780B483B033
:1026B00000AF786000BF0C37BD465DF8047B704703
:1026C00080B483B000AF786000BF0C37BD465DF8C2
:1026D000047B704780B584B000AF78600B46FB7018
:1026E0007B68012B11D80C497B687A6841F823205C
:1026F0007B689B00084A1344184601F027FC7B685E
:102700009B00054A1344FB6001E00023FB60FB686B
:1027100018461037BD4680BDC011002080B584B07A
:1027200000AF786039607B68002B07D03B681946A2
:10273000786801F027FD0023FB7301E00823FB7399
:10274000FB7B18461037BD4680BD80B588B002AF10
:10275000F8607A603B600B467B8100237B6197F8D1
:102760002030002B0CBF01230023DBB23B61FB6850
:10277000002B19D07B8959003A683B6900931346B6
:102780007A68F86801F026FD03467B617B6913F1E6
:10279000020F01D1012308E07B69B3F1FF3F01D1B2
:1027A000042302E0002300E0082318461837BD4642
:1027B00080BD80B588B002AFF8607A603B600B46A0
:1027C0007B8100237B6197F82030002B0CBF012315
:1027D0000023DBB23B61FB68002B19D07B895900D9
:1027E0003A683B69009313467A68F86801F062FD25
:1027F00003467B617B6913F1020F01D1012308E0DD
:102800007B69B3F1FF3F01D1042302E0002300E024
:10281000082318461837BD4680BD80B483B000AF8A
:10282000786000BF0C37BD465DF8047B7047000040
:1028300080B584B000AFF860B9601346FB71BB6827
:102840001F2B05D90D4B0E4AFF210E480AF0B4FA92
:10285000FB68BA6853F8223023F0807323F4E063F6
:10286000FA79120202F4E06243EA0201FB68BA68F4
:1028700043F8221000BF1037BD4680BDF4F70000BA
:10288000FCF9000000F8000080B483B000AF78606D
:102890000B46FB707B681B6823F01802FB78DB009B
:1028A00003F018031A437B681A6000BF0C37BD465B
:1028B0005DF8047B7047000090B58FB000AF786181
:1028C00087ED020B87ED001B524A7B695B011344C5
:1028D00011331B78002B40F08780002387F82830C5
:1028E000002387F82930002387F82A308023FB62F1
:1028F000484A7B695B0113441868464A7B695B015F
:10290000134404331968434A7B695B011344103351
:102910001B781A46FFF78CFF3E4A7B695B01134424
:1029200008331B6807F128021146184608F026FBF9
:10293000384A7B695B01134408331B68DBB2002211
:102940000121184608F09EFB324A7B695B01134463
:10295000113304221A702F4A7B695B01134403F17F
:102960001802D7E90234C2E9003402233B7600237F
:102970007B76284A7B695B0113441833D3E9003422
:1029800018462146FEF7F8FA0346FB61D7E9000135
:10299000FEF7F2FA03463B620023BB841D4A7B69C3
:1029A0005B01134408331B681B4A52F823303B6316
:1029B0000021386BFFF768FF164A7B695B011344FF
:1029C00008331868134A7B695B0113440C331B6896
:1029D000DAB207F11803194608F0B2FB7B695B0114
:1029E0000C4A13447B630FE00A4A7B695B01134482
:1029F00011331B78042B05D17B695B01054A134415
:102A00007B6301E000237B637B6B18463C37BD464C
:102A100090BD00BF800100203404010080B483B069
:102A200000AF786000BF0C37BD465DF8047B70478F
:102A300090B58BB000AFF86087ED000BFB687B6250
:102A40007B6A002B2CD07B6A5B7C042B28D1022371
:102A50003B7400237B747B6AD3E906341846214615
:102A6000FEF78AFA03467B61D7E90001FEF784FA94
:102A70000346BB610023BB837B6A9B680A4A52F80A
:102A800023303B620021386AFFF7FEFE7B6A9868BC
:102A90007B6ADB68DAB207F11003194608F050FBD5
:102AA00000BF2C37BD4690BD3404010080B485B012
:102AB00000AF78607B68FB60FB68002B06D0FB688A
:102AC0005B7C042B02D1FB6800225A7400BF1437D0
:102AD000BD465DF8047B704780B483B000AF78607A
:102AE00000BF0C37BD465DF8047B704780B584B0ED
:102AF00000AFF860B9607A60BB680F2B06D90A4B4B
:102B00000A4A40F2E2210A480AF056F9FA68BB681C
:102B10005B01134403F5805310337A681A6000BFD9
:102B20001037BD4680BD00BF38F8000034FA000001
:102B300064F8000080B584B000AFF860B960134657
:102B4000FB71BB680F2B06D90C4B0D4A4FF460711B
:102B50000C480AF031F9BB685B0103F58053183368
:102B6000FA681344043303F104735B010433FA7904
:102B700092B21A8000BF1037BD4680BD38F8000001
:102B800050FA000064F8000090B587B000AFF8601C
:102B90007A603B600B46FB7200237B61FB681B681D
:102BA000022B00F04D81032B00F0DF81012B00F0A0
:102BB0009580954B00221A60934B1B68934A52F8FC
:102BC0002330002B41D1904B1B68914ADB0013440A
:102BD00000229A718C4B1B688D4ADB001344002243
:102BE0001A71894B1B688A4ADB00134400225A7110
:102BF000854B1B68864A4FF4E13142F83310824B13
:102C00001B68184605F022F97F4B1B689B01814A1F
:102C100013448149184608F0C3F87B4B18687A4B77
:102C20001A6813461B019B1A9B007C4A9918764B25
:102C30001B68DB00764A13441A4609F069F9724BA7
:102C40001B68724A012142F823107B68B3F1FF3FF1
:102C500020D06D4B1A68724913469B0013449B00A9
:102C60000B4414221A60684B1A686D4913469B0086
:102C700013449B000B4408336A4A1A60624B1A687B
:102C8000674913469B0013449B000B440C33664A70
:102C90001A6015E05C4B1A68614913469B001344A7
:102CA0009B000B44043314221A60574B1A685C498A
:102CB00013469B0013449B000B4410335B4A1A607D
:102CC000514B1B68504A1268594941F823204E4B1A
:102CD0001B689B00564A13447B61DBE14A4B01228F
:102CE0001A60494B1B68494A52F82330002B41D1E6
:102CF000454B1B68464ADB00134400229A71424B45
:102D00001B68434ADB00134400221A713E4B1B68C8
:102D10003F4ADB00134400225A713B4B1B683C4A7C
:102D20004FF4E13142F83310374B1B68184605F079
:102D30008DF8354B1B689B01364A134436491846BB
:102D400008F02EF8304B18682F4B1A6813461B01F9
:102D50009B1A9B00314A99182B4B1B68DB002C4AAD
:102D600013441A4609F0D4F8274B1B68274A01215F
:102D700042F823107B68B3F1FF3F20D0224B1A6842
:102D8000274913469B0013449B000B4400221A6002
:102D90001D4B1A68224913469B0013449B000B44A9
:102DA0000833244A1A60184B1A681D4913469B00C1
:102DB00013449B000B440C331F4A1A6015E0124B5E
:102DC0001A68174913469B0013449B000B440433B5
:102DD00000221A600C4B1A68114913469B001344D9
:102DE0009B000B441033154A1A60074B1B68064AB8
:102DF00012680F4941F82320034B1B689B000C4AC3
:102E000013447B6146E100BFCC150020D0150020A3
:102E1000EC14002004120020000000208413002085
:102E200024150020C8110020DC110020F011002022
:102E3000B4150020F0110020F01100200412002031
:102E4000AD4B02221A60AC4B1B68AC4A52F82330DF
:102E5000002B41D1A84B1B68A94ADB001344002278
:102E60009A71A54B1B68A64ADB00134400221A7115
:102E7000A14B1B68A24ADB00134400225A719E4BEF
:102E80001B689F4A4FF4E13142F833109A4B1B689C
:102E9000184604F0DBFF984B1B689B01994A1344CA
:102EA0009949184607F07CFF934B1868924B1A68B3
:102EB00013461B019B1A9B00944A99188E4B1B6862
:102EC000DB008F4A13441A4609F022F88A4B1B682C
:102ED0008A4A012142F823107B68B3F1FF3F20D0DA
:102EE000854B1A688A4913469B0013449B000B4488
:102EF00000221A60804B1A68854913469B001344D0
:102F00009B000B440833834A1A607B4B1A68804944
:102F100013469B0013449B000B440C337E4A1A60FB
:102F200015E0754B1A687A4913469B0013449B00C1
:102F30000B44043300221A606F4B1A68744913461D
:102F40009B0013449B000B441033744A1A606A4B75
:102F50001B68694A1268724941F82320664B1B6856
:102F60009B006F4A13447B6194E0634B03221A6019
:102F7000614B1B68614A52F82330002B41D15E4BF4
:102F80001B685F4ADB00134400229A715A4B1B688E
:102F90005B4ADB00134400221A71574B1B68584AE6
:102FA000DB00134400225A71534B1B68544A4FF400
:102FB000E13142F83310504B1B68184604F046FFCD
:102FC0004D4B1B689B014F4A13444F49184607F06D
:102FD000E7FE494B1868484B1A6813461B019B1AB9
:102FE0009B004A4A9918444B1B68DB00444A13442F
:102FF0001A4608F08DFF404B1B68404A012142F8F9
:1030000023107B68B3F1FF3F20D03B4B1A68404947
:1030100013469B0013449B000B4400221A60364B5E
:103020001A683B4913469B0013449B000B4408332A
:103030003C4A1A60304B1A68354913469B001344CA
:103040009B000B440C33384A1A6015E02A4B1A686F
:103050002F4913469B0013449B000B44043300226A
:103060001A60254B1A682A4913469B0013449B009B
:103070000B4410332D4A1A601F4B1B681E4A1268FE
:10308000274941F823201C4B1B689B00244A13440A
:103090007B6100BF7B68B3F1FF3F28D0164B1A68F5
:1030A00013461B019B1A9B002833184A1344181D12
:1030B000114B1B681A461E4907F0B0FE0E4B1868EC
:1030C0000D4B1A68124913469B0013449B000B4496
:1030D00008331C68084B1A680D4913469B001344BB
:1030E0009B000B441B681A46214600F0DFF87B6901
:1030F00018461C37BD4690BDCC150020D0150020C9
:10310000EC14002004120020000000208413002092
:1031100024150020F0110020F011002004120020DE
:10312000B4150020F0110020F0110020041200203E
:103130005933000080B483B000AF78603960002359
:1031400018460C37BD465DF8047B704780B483B0E9
:1031500000AF7860084611461A460346FB700B46DE
:10316000BB7013467B70002318460C37BD465DF8D4
:10317000047B704780B586B000AFF860B9607A60B4
:10318000FB683B613B69002B33D03B691B681F4ADE
:10319000D35C012B2DD13B691B681D4A52F82330AB
:1031A000012B0FD13B691A681A4913469B0013443F
:1031B0009B000B4408331B687A681946B868FFF710
:1031C00051F80EE03B691A68124913469B001344FC
:1031D0009B000B440C331B687A681946B868FFF7EC
:1031E00041F83B691B68094A0021D1540023FB7553
:1031F00006E07A680021B8680AF01EF92023FB7502
:10320000FB7D18461837BD4680BD00BF1C15002049
:103210009C1500202415002080B586B000AFF86012
:10322000B9607A60FB683B613B69002B2AD03B693F
:103230001B680021184608F0ADFF0346082B21D07B
:103240003B691A68134913469B0013449B000B44C7
:1032500010331B687A68B9681846FFF703F83B69B2
:1032600018683B691A680B4913469B0013449B007E
:103270000B4410331B687A68194608F067FF034651
:10328000FB7501E02023FB75FB7D18461837BD4612
:1032900080BD00BF2415002080B483B000AF7860EB
:1032A00000BF0C37BD465DF8047B704780B588B021
:1032B00000AFF860B9607A60FB68052B06D9214B36
:1032C000214A40F28911214809F076FD204AFB6825
:1032D00052F82330FB61FB6993F82C301B09DBB2F9
:1032E0001A461C4B53F82230BB61FB6993F82C3013
:1032F00003F00F037B61FB695B78DBB2002B01D02D
:1033000009231AE0FB6901225A70BB681A467969E1
:10331000B869FFF7EBFB7A687969B86907F088FC50
:1033200001227969B869FFF705FC7B69DBB20122EC
:103330001946B86907F077FB002318462037BD46C9
:1033400080BD00BF9CF8000010FA0000BCF800002F
:10335000D86B0020F401010080B582B000AF786026
:103360000B46FB707B68184600F004F800BF083776
:10337000BD4680BD80B586B000AF78607B68052B08
:1033800006D93D4B3D4A40F2AD113D4809F014FDD0
:103390003C4A7B6852F823307B617B6993F82C3080
:1033A0001B09DBB21A46384B53F822303B617B696C
:1033B00093F82C3003F00F03FB600022F9683869A2
:1033C000FFF7B8FBFB68DBB200221946386907F04B
:1033D0002AFB7B69DB78DBB2002B04D07B691033DE
:1033E000184606F067FF7B6900225A70274A7B68FF
:1033F000134401221A70264A7B6852F82330002BAE
:103400001BD124497A6813469B0013449B000B444C
:103410000C3318681F497A6813469B0013449B00BD
:103420000B441B681A4601467868FFF73FFF184AAD
:103430007B68012142F823101AE016497A68134686
:103440009B0013449B000B440833186811497A68A9
:1034500013469B0013449B000B441B681A4601460D
:103460007868FFF723FF0A4A7B68002142F823109F
:1034700000BF1837BD4680BD9CF8000068FA000008
:10348000BCF80000D86B0020F40101001C150020DE
:103490009C1500202415002080B590B000AF786006
:1034A0000B46FB70FB78002B27D107F12403002289
:1034B0001A605A609A60DA601A615A612D4A7B6814
:1034C00052F833307B62012387F82830012387F8D4
:1034D00029304FF0FF333B6307F12403184607F010
:1034E00021FF244A7B68DB00134401221A717B68A8
:1034F000DB00204A1344FB6336E0FB78012B31D11B
:1035000007F10C0300221A605A609A60DA601A61AF
:103510005A61184A7B6852F83330FB6001233B75CF
:103520004FF0FF33BB6107F10C03184607F06AFF49
:10353000104A7B68DB00134402221A717B68292B36
:103540000AD97B682C2B07D80A4A7B6852F833309B
:103550000121184607F08EFF7B68DB00054A134403
:10356000FB6301E00023FB63FB6B18464037BD465D
:1035700080BD00BF0400002080B586B000AF786039
:103580007B683B613B69002B0BD03B691B79012BAE
:1035900007D13B691B68184607F07AFF0346FB75A5
:1035A00001E00023FB753B691B681B0ADBB2FB6073
:1035B0003B691B68DBB2BB60FB68022B02D1BB68B6
:1035C000062B05D0FB68002B09D1BB68042B06D164
:1035D000FB7D002B0CBF01230023DBB2FB75FB7DC1
:1035E00018461837BD4680BD80B586B000AF7860FC
:1035F0000B46FB707B687B617B69002B2FD07B695E
:103600001B79022B2BD17B691B681B0ADBB23B6148
:103610007B691B68DBB2FB603B69012B05D1FB6852
:10362000162B08D0FB68152B05D03B69042B0FD156
:10363000FB681A2B0CD17B691A68FB78012B14BF2D
:1036400001230023DBB21946104607F013FF06E002
:103650007B691B68FA781146184607F00BFF00BF1C
:103660001837BD4680BD80B485B000AF78607B68F8
:10367000FB60FB68002B0ED0FB681B79022B03D18B
:10368000FB6800221A7106E0FB681B79012B02D14E
:10369000FB6800221A7100BF1437BD465DF8047B39
:1036A000704780B400AFFEE780B483B000AF7860AD
:1036B0007B68013B032B0BD801A252F823F000BF1B
:1036C000D1360000D1360000D1360000D1360000DE
:1036D00000BFFEE7704770470020002104460D46FA
:1036E000084809F087FB09F0CFFB2046294605F082
:1036F0006BF90548002105F09BFA05F0F5F909F092
:1037000085FB00002DCE0000CCFA000080B584B00F
:1037100000AFF860B9601346FB71BB681F2B05D979
:103720000D4B0E4AFF210E4809F046FBFB68BA68B4
:1037300053F8223023F0807323F4E063FA79120205
:1037400002F4E06243EA0201FB68BA6843F822101F
:1037500000BF1037BD4680BD24F90000F4FA000018
:1037600030F9000080B483B000AF78600B46FB7086
:103770007B68FA781A7000BF0C37BD465DF8047B91
:103780007047000080B584B000AF3B4600221A604D
:103790005A609A60DA60064B3B6002237B723B46BC
:1037A0001946002006F096FE00BF1037BD4680BDCA
:1037B00080F0FA0280B584B000AF074A3B1D07CA0B
:1037C00083E807003B1D1946002006F0D1FE00BF2C
:1037D0001037BD4680BD00BF68F9000080B500AF5E
:1037E0002A210848FFF7BEFF002212210648FFF7F2
:1037F0008DFFFFF7C7FFFFF7DDFF044806F00CFF62
:1038000000BF80BD00E0074000900440DCFA0000EB
:1038100080B582B000AF7860034800F0CDFE00BFF5
:103820000837BD4680BD00BF5067002090B583B00B
:1038300000AF154B154A1A6000237B600DE07A68D3
:1038400013469B0013449B00114A1A4411497B689C
:1038500041F833207B6801337B607B68012BEEDD10
:103860000D4B0E4A1C1D13460FCB84E80F0000F0D1
:1038700003FF0246084B1A60094B074A1A6000BF53
:103880000C37BD4690BD00BF506700207067002018
:103890008C6700205867002030670020CCFA0000B9
:1038A0004867002080B588B002AF87ED010A386014
:1038B0000223FB60FFF7BAFF314800F06DFE0346BC
:1038C000BB60304800F068FE0346BB6000230093F5
:1038D0000023FA682C492D4800F0A5FE0346BB6082
:1038E00000237B612FE02A497B697A6941F8232014
:1038F0007B69DB00274A1344184600F04DFE03465F
:10390000BB607B690133FA68D31A3B613B6913F1F1
:10391000020F02DA6FF001033B617A6913469B00E4
:1039200013449B001C4A98187B699B00184A134457
:10393000009300233A69194900F075FE0346BB6005
:103940007B6901337B617B69012BCCDD0023144A49
:103950000121144800F0B5FE0346BB60D7ED017AA3
:103960009FED117A67EE877AFCEEE77A17EE901AF0
:103970000C4800F0CDFE00BF1837BD4680BD00BF2B
:1039800050670020486700200D3A00007067002053
:1039900068670020586700208C670020AD39000060
:1039A000113800000C67002000007A4480B588B010
:1039B00000AF78617B691B68FB61FB690133BB6108
:1039C0000FE0FB69DB000E4A1A443B4611461846DD
:1039D00000F005FE0B4B1B68002B08D1B86903F003
:1039E000FDFD094B1B78DBB2002BEAD100E000BFE4
:1039F000002000F048FE002318462037BD4680BD59
:103A000058670020886700200200002080B588B039
:103A100000AF7861234B1B681B68002B0CBF012390
:103A20000023DBB21A46204B1A702BE03B461F499D
:103A3000184600F0D4FD0123FB6112E0194B1A680F
:103A4000FB69134404331B78002B07D1FB69013B4E
:103A5000DB00174A1344184600F0AEFDFB69013342
:103A6000FB61FB69022BE9DD002003F0B7FD0D4B84
:103A70001B681B68002B14BF01230023DBB21A460E
:103A80000C4B1A70084B1B78DBB2002BCED1786937
:103A900000F012F8002000F0F6FD00231846203751
:103AA000BD4680BD44FB000002000020506700209E
:103AB000586700204467002080B586B002AF786068
:103AC0001E4B01221A600023FB6010E0FB68DB0044
:103AD0001B4A1344184600F06FFDFB68DB00184AD0
:103AE0001344184600F095FDFB680133FB60FB684A
:103AF000012BEBDD0023FB6010E01249FA6813464E
:103B00009B0013449B000B440F4A01921A690092D8
:103B10000FCB00F0C9FDFB680133FB60FB68012B94
:103B2000EBDD0A4B00221A7004F0DCF8084800F0C4
:103B300043FD002318461037BD4680BD886700202E
:103B4000586700208C670020846700200200002056
:103B50004867002080B586B000AF786139610F4BAF
:103B600029221A600D4B2A225A6004F03FFD00F012
:103B7000BEF80B4B1B6800221A6003F049FD0220BF
:103B80009FED080AFFF78EFE3B460749184600F0F6
:103B900026FD002318461837BD4680BDB4670020B7
:103BA00044FB00006F12833A4867002080B500AFE5
:103BB000002007F06FF900BF80BD80B500AF012085
:103BC00007F068F900BF80BD80B500AF022007F0A4
:103BD00061F900BF80BD80B500AF032007F05AF93E
:103BE00000BF80BD80B500AF042007F053F900BFCF
:103BF00080BD80B500AF052007F04CF900BF80BD47
:103C000080B500AF062007F045F900BF80BD80B544
:103C100000AF072007F03EF900BF80BD80B500AFC0
:103C2000082007F037F900BF80BD80B500AF09203C
:103C300007F030F900BF80BD80B500AF0A2007F063
:103C400029F900BF80BD80B500AF0B2007F022F935
:103C500000BF80BD80B500AF0C2007F01BF900BF8E
:103C600080BD80B500AF0D2007F014F900BF80BD06
:103C700080B500AF0E2007F00DF900BF80BD80B504
:103C800000AF0F2007F006F900BF80BD80B500AF80
:103C9000002007F017F900BF80BD80B500AF0020FD
:103CA00008F020F800BF80BD80B500AF012008F00B
:103CB00019F800BF80BD80B500AF022008F012F8EF
:103CC00000BF80BD80B500AF032008F00BF800BF37
:103CD00080BD80B500AF042008F004F800BF80BDAF
:103CE00080B500AF052007F0FDFF00BF80BD80B5A7
:103CF00082B000AF06F02CFB0023FB7106E0FB79DD
:103D0000184606F011FDFB790133FB71FB79042B9A
:103D1000F5D9FFF763FD00BF0837BD4680BD80B50C
:103D200082B000AF786006F0CFFC03461846083733
:103D3000BD4680BD80B483B000AF78607B6802333D
:103D400003F104735B011C3301221A7000BF0C37AE
:103D5000BD465DF8047B704780B483B000AF7860E7
:103D60007B68023303F104735B010C3300221A7089
:103D700000BF0C37BD465DF8047B704780B483B04C
:103D800000AF78607B68023303F104735B010C338E
:103D900001221A7000BF0C37BD465DF8047B7047E6
:103DA00080B483B000AF78600B46FB707B68023351
:103DB00003F104735B0110331A46FB78137000BFE4
:103DC0000C37BD465DF8047B704780B483B000AF0C
:103DD00078607B681B79DBB218460C37BD465DF80E
:103DE000047B704780B483B000AF78600B46FB70F3
:103DF0007B68FA781A7100BF0C37BD465DF8047B0A
:103E0000704780B483B000AF78600B46FB707B686E
:103E1000DB78DBB21A46FB7842FA03F303F00103C6
:103E2000002B14BF01230023DBB218460C37BD461C
:103E30005DF8047B704780B483B000AF78607B6826
:103E4000023303F104735B0114331B78DBB2002BE4
:103E500014BF01230023DBB218460C37BD465DF8C2
:103E6000047B704780B483B000AF78600B46FB7072
:103E70007B68023303F104735B011833FA781A701C
:103E800000BF0C37BD465DF8047B704780B483B03B
:103E900000AF78607B680222DA7000BF0C37BD4645
:103EA0005DF8047B7047000080B584B000AFF86017
:103EB000B9601346FB71BB681F2B05D90A4B0B4A2F
:103EC000D9210B4808F078FFBB689B00FA681344BF
:103ED00003F104735B0114331A46FB79136000BFCE
:103EE0001037BD4680BD00BF74F9000028FB0000FC
:103EF00080F9000080B584B000AFF860B960134667
:103F0000FB71BB681F2B05D90D4B0E4AFF210E48D4
:103F100008F052FFFB68BA6853F8223023F0807330
:103F200023F4E063FA79120202F4E06243EA020148
:103F3000FB68BA6843F8221000BF1037BD4680BD49
:103F400074F9000014FB000080F9000080B584B013
:103F500000AF78607B681B680F4A52F82330FB6023
:103F60007B681B68184600F0EDF97B681B681846F3
:103F700006F022FCF86807F0A9FAF868FFF7DAFE05
:103F80000121F868FFF76EFF0449786800F0FAF83D
:103F900000BF1037BD4680BD08FB0000A0860100B1
:103FA00080B584B000AF78607B681B68054A52F822
:103FB0002330FB60F86807F0CFFA0023184610376B
:103FC000BD4680BD08FB000080B584B000AF7860BE
:103FD0000023BB607B681B680D4A52F82330FB60EE
:103FE000F868FFF728FF0346002B02D0F86807F0B7
:103FF000C1FA0023BB6003E000BFBB680133BB60B4
:10400000BB68C72BF8D9002318461037BD4680BDC2
:1040100008FB000080B586B000AF78600B46FB70EF
:10402000104B3B617B681B680F4A52F82330FB60E2
:1040300000237B610CE0FB781946F868FFF7E1FE8E
:104040000346002B01D0002307E07B6901337B612D
:104050007A693B699A42EED3012318461837BD4668
:1040600080BD00BFA086010008FB000080B584B0C1
:1040700000AF78607B681B68104A52F82330FB6001
:1040800001217868FFF7C6FF0346002B01D0022309
:1040900010E0F868FFF7FAFE07217868FFF7BAFF2B
:1040A0000346002B01D0022304E00021F868FFF74B
:1040B000A8FE034618461037BD4680BD08FB000029
:1040C00080B584B000AF78607B681B680A4A52F8FC
:1040D0002330FB6001217868FFF79CFF0346002B2B
:1040E00001D0012303E0F868FFF7D0FE0023184653
:1040F0001037BD4680BD00BF08FB000080B584B00E
:1041000000AF786039607B681B68094A52F8233039
:10411000FB603B68DBB21946F868FFF763FE78681E
:10412000FFF7A4FF034618461037BD4680BD00BF09
:1041300008FB000080B586B000AFF860B9607A6017
:10414000FB681B680E4A52F823307B617B68002BAA
:1041500003D07869FFF712FE02E07869FFF7FCFDF3
:104160007869FFF732FE03461A46BB681A70F86892
:10417000FFF7A6FF034618461837BD4680BD00BFAF
:1041800008FB000080B584B000AF786039607B68C0
:104190001B680E4A52F82330FB607B681B68184688
:1041A000FFF7BDFD0346BB603B68094A82FB031273
:1041B0009211DB17D31A1A460023B968F86807F082
:1041C00093F900BF1037BD4680BD00BF08FB00005B
:1041D000D34D621090B589B000AFF860B9607A60D5
:1041E0003B60F868FFF7DCFE0346002B05D0F8685B
:1041F000FFF7EAFE6FF0010355E0BB6843F00103EF
:104200001946F868FFF77AFF0346002B05D0F868D7
:10421000FFF7DAFE4FF0FF3345E0FB681B68244AE6
:1042200052F82330BB610021B869FFF7B9FD0023C4
:10423000FB6124E0FB69002B02D107F1120303E0CC
:10424000FB69013B7A6813447B613B68013BFA6977
:104250009A420CBF01230023DBB2FB74FB7C1A469D
:104260007969F868FFF766FF0346002B04D0F86809
:10427000FFF7AAFEFB6916E0FB690133FB61FA69EF
:104280003B689A42D6DB3B6B002B02D0F868FFF705
:104290009BFEFB69013B7A68D418B869FFF795FD6E
:1042A000034623703B6818462437BD4690BD00BFC7
:1042B00008FB000080B586B000AFF860B9607A6096
:1042C0003B60F868FFF76CFE0346002B05D0F868EA
:1042D000FFF77AFE6FF0010330E0BB6803F0FE03E6
:1042E0001946F868FFF70AFF0346002B05D0F86867
:1042F000FFF76AFE4FF0FF3320E000237B6112E0FE
:104300007B697A6813441B781946F868FFF7F6FE54
:104310000346002B04D0F868FFF756FE7B690DE0DA
:104320007B6901337B617A693B689A42E8DB3B6ACF
:10433000002B02D0F868FFF747FE3B681846183795
:10434000BD4680BD80B582B000AF78607B68002B31
:1043500002D0012B15D029E0052218211548FFF7BE
:10436000C9FD012218211348FFF79EFD05221921DE
:104370001048FFF7BFFD012219210E48FFF794FDF9
:1043800014E002220A210C48FFF7B4FD01220A21A1
:104390000948FFF789FD02220B210748FFF7AAFD14
:1043A00001220B210448FFF77FFD00BF00BF083743
:1043B000BD4680BD00D0044000B0044080B400AFD2
:1043C000FEE780B400AFFEE780B400AFFEE780B444
:1043D00000AFFEE780B400AFFEE780B400AFFEE7B9
:1043E00080B400AFFEE780B400AFFEE780B400AF5A
:1043F000FEE780B400AFFEE780B400AFFEE780B414
:1044000000AFFEE780B400AFFEE780B400AFFEE788
:1044100080B400AFFEE780B400AFFEE780B400AF29
:10442000FEE780B400AFFEE780B400AFFEE780B4E3
:1044300000AFFEE780B400AFFEE780B400AFFEE758
:1044400080B400AFFEE780B400AFFEE780B400AFF9
:10445000FEE780B400AFFEE780B400AFFEE780B4B3
:1044600000AFFEE780B400AFFEE780B400AFFEE728
:1044700080B400AFFEE780B400AFFEE780B400AFC9
:10448000FEE780B400AFFEE780B400AFFEE780B483
:1044900000AFFEE780B400AFFEE780B400AFFEE7F8
:1044A00080B400AFFEE780B400AFFEE780B400AF99
:1044B000FEE780B400AFFEE780B400AFFEE780B453
:1044C00000AFFEE780B400AFFEE780B400AFFEE7C8
:1044D00080B400AFFEE780B400AFFEE780B400AF69
:1044E000FEE780B400AFFEE780B400AFFEE780B423
:1044F00000AFFEE780B400AFFEE780B400AFFEE798
:1045000080B400AFFEE780B400AFFEE780B400AF38
:10451000FEE780B400AFFEE780B400AFFEE780B4F2
:1045200000AFFEE784B080B582B000AF07F1100C99
:104530008CE80F003B69796A184604F0CBFD03460E
:104540007B607B6818460837BD46BDE8804004B0F4
:10455000704784B080B500AF07F1080C8CE80F00FD
:10456000BB68F969184604F0D5FD03461846BD46F8
:10457000BDE8804004B0704780B582B000AF78607D
:1045800039607B684FF0FF323968184604F0D0FD7F
:1045900078680837BD4680BD80B485B000AF7860CC
:1045A0007B6801225A600123FB60FB6818461437C0
:1045B000BD465DF8047B704780B584B002AF78607B
:1045C0007B681B687A68526801921A6900920FCB67
:1045D000FFF7A8FF034618460837BD4680BD80B5E3
:1045E00084B002AF786039603B681B683A685268F3
:1045F00001921A6900920FCBFFF7ABFF3B685A6834
:104600007B6811461846FFF7B7FF78680837BD4644
:1046100080BD80B483B000AF786000BF0C37BD466A
:104620005DF8047B704780B586B000AFF860B96074
:104630007A603B60FB68BA685A60FB687A689A6087
:10464000FB680122DA603A68FB681A61FB68043390
:10465000396A184604F0ECFA0246FB681A60FB68F7
:104660001B68002B14BF01230023DBB27B617B6935
:1046700018461837BD4680BD80B500AF04F026FB54
:104680000346184680BD80B584B000AF786004F062
:104690001DFB0346FB60F86804F024FB0346BB6087
:1046A00000BF1037BD4680BD84B090B400AF07F1A5
:1046B000080484E80F0001231846BD4690BC04B0EE
:1046C000704780B586B000AFF8607A603B600B46FB
:1046D000FB72FB6803F10C02FB689A60FB687A6866
:1046E0005A60FB680433F97A3A68184604F0EEFB26
:1046F0000246FB681A60FB681B68002B14BF01238D
:104700000023DBB27B617B6918461837BD4680BD4C
:1047100080B584B000AF786039607B681B68396809
:10472000184604F005FC0346FB60FB68184610378A
:10473000BD4680BD80B400AF174B5B79002B0CBF2A
:1047400001230023DAB2144BDA71134B9B79002B4F
:104750000CBF01230023DAB20F4B1A720E4B5A79A9
:104760000132D2B25A710C4B5B79042B02D90A4B3D
:1047700000225A71084B9A790132D2B29A71064BD3
:104780009B79132B02D9044B00229A7100BFBD46BE
:104790005DF8047B704700BF206B002090B482B0AE
:1047A00000AF7860254A4FF00003254CC2E924345D
:1047B0007B681B68214AC2F8B030204A4FF00003E2
:1047C0001F4CC2E910341D4A4FF000031C4CC2E9D3
:1047D0001E341A4A4FF000034FF00004C2E91C34A3
:1047E000164A4FF000034FF00004C2E91434134A94
:1047F0004FF000034FF00004C2E918340F4A4FF0A5
:1048000000034FF00004C2E91A340C4A4FF00003D1
:104810004FF00004C2E92034084A4FF00003084C6E
:10482000C2E92234054BD3E90C34044AC2E91234FC
:1048300000BF0837BD4690BC704700BFC06700206E
:104840000000F03F90B589B000AFF860B9607A60C1
:104850003B607B681B78032B0CD07B681B78072B95
:1048600008D0A34B002283F84322A14B032283F8F4
:104870004122F1E17B681B78002B0BD07B681B7811
:10488000012B07D07B681B78022B03D07B681B7839
:10489000032B03D1BB681B88FB8302E0FB681B88EA
:1048A000FB83934B93F84332012B03D0022B00F090
:1048B000D18089E18F4A4FF000038F4CC2E9243444
:1048C0008C4A4FF000038C4CC2E91034894A4FF0F7
:1048D0000003894CC2E91E34864A4FF000034FF0B2
:1048E0000004C2E91434834A4FF000034FF000047F
:1048F000C2E918347F4A4FF000034FF00004C2E9C8
:1049000020347C4A4FF000037B4CC2E922347B6B9D
:104910001B78002B1FD0774B93F81631002B1AD041
:10492000734BD3F820323A6B1288934213D3704BF7
:10493000D3F820326E4AB2F8262293420BD36C4B46
:10494000022283F843226A4B0022C3F820223868EF
:10495000FFF724FF7BE1FB8B3A6B12889B1ABB614C
:10496000FB8BBA699A4201D90023BB61604BD3F833
:104970002032BA699A4245D85D4B032283F843221C
:104980005B4B0022C3F820225A4A4FF000034FF03D
:104990000004C2E92434574A4FF000034FF00004EA
:1049A000C2E91034534A4FF00003534CC2E91E349D
:1049B000504A4FF000034FF00004C2E91A344D4A48
:1049C0004FF000034FF00004C2E92034494A4FF091
:1049D00000034FF00004C2E91434464A4FF00003CC
:1049E0004FF00004C2E91834424A4FF000034FF080
:1049F0000004C2E922343F4A4FF000033E4CC2E9B2
:104A00001C3424E17B6B1B78002B40F02081394B58
:104A100093F81631002B00F01A81354BD3F8203271
:104A20003A6B12889342C0F01281314BD3F8203296
:104A30002F4AB2F826229342C0F009812C4B012262
:104A400083F843222A4B0022C3F820223868FFF75C
:104A5000A5FEFCE0274A4FF00003274CC2E92434AE
:104A6000244A4FF00003244CC2E91034214A4FF08D
:104A70000003214CC2E91E341E4A4FF000034FF0E0
:104A80000004C2E914341B4A4FF000034FF0000445
:104A9000C2E91834174A4FF000034FF00004C2E98E
:104AA0002034144A4FF00003134CC2E92234114B56
:104AB00093F81631002B21D00D4BD3F820323A6BEE
:104AC000128893421AD30A4BD3F82032084AB2F81C
:104AD0002622934212D3064B022283F84322044B30
:104AE0000022C3F820223868FFF758FEB1E000BF6B
:104AF000D8680020C06700200000F03FFB8B584AB8
:104B0000B2F82C2113447B617B69B3F5803F02D35B
:104B10004FF6FF737B613B6B1B881A467B699B1AC0
:104B2000BB61BA697B699A4201D90023BB614D4BD5
:104B3000D3F82032BA699A4200F28B80494B0322A3
:104B400083F84322474B0022C3F82022464A4FF005
:104B500000034FF00004C2E92434434A4FF000033D
:104B60004FF00004C2E910343F4A4FF000033F4CBD
:104B7000C2E91E343C4A4FF000034FF00004C2E982
:104B80001A34394A4FF000034FF00004C2E92034D0
:104B9000354A4FF000034FF00004C2E91434324AA2
:104BA0004FF000034FF00004C2E918342E4A4FF0D2
:104BB00000034FF00004C2E922342B4A4FF00003F7
:104BC0002A4CC2E91C3444E0274A4FF000034FF05E
:104BD0000004C2E92434244A4FF000034FF00004DB
:104BE000C2E91034204A4FF00003204CC2E91E34C1
:104BF0001D4A4FF000034FF00004C2E920341A4A66
:104C00004FF000034FF00004C2E91434164A4FF08D
:104C100000034FF00004C2E91834134A4FF00003B8
:104C20004FF00004C2E922340E4BD3F820323A6B25
:104C3000128893420FD30B4B012283F84322094B76
:104C40000022C3F820223868FFF7A8FD03E000BF68
:104C500002E000BF00E000BF00BF2437BD4690BDAA
:104C600080060020D8680020C06700200000F03FC8
:104C700090B482B000AF7860254A4FF00003254C15
:104C8000C2E924347B681B68214AC2F8B030204A4C
:104C90004FF000031F4CC2E910341D4A4FF00003CF
:104CA0001C4CC2E91E341A4A4FF000034FF00004B6
:104CB000C2E91C34164A4FF000034FF00004C2E969
:104CC0001434134A4FF000034FF00004C2E91834C3
:104CD0000F4A4FF000034FF00004C2E91A340C4AA7
:104CE0004FF000030B4CC2E92034094A4FF0000397
:104CF0004FF00004C2E92234054BD3E90A34044AD8
:104D0000C2E9163400BF0837BD4690BC704700BFEB
:104D1000C06700200000F03F90B589B000AFF86098
:104D2000B9607A603B607B681B78022B0CD07B6893
:104D30001B78062B08D0A34B002283F84522A14BF9
:104D4000032283F84122F1E17B681B78002B0BD012
:104D50007B681B78012B07D07B681B78022B03D064
:104D60007B681B78032B03D1BB681B88FB8302E0A5
:104D7000FB681B88FB83934B93F84532012B03D0D0
:104D8000022B00F0D18089E18F4A4FF000038F4C55
:104D9000C2E924348C4A4FF000038C4CC2E9103431
:104DA000894A4FF00003894CC2E91E34864A4FF00D
:104DB00000034FF00004C2E91434834A4FF00003AB
:104DC0004FF00004C2E918347F4A4FF000037F4CD3
:104DD000C2E920347C4A4FF000034FF00004C2E9DE
:104DE0002234FB8B3A6B12889B1ABB61FB8BBA692E
:104DF0009A4201D90023BB61724BD3F82032BA69C1
:104E00009A4245D86F4B032283F845226D4B00220E
:104E1000C3F820226C4A4FF000034FF00004C2E9AF
:104E20002434694A4FF000034FF00004C2E9103403
:104E3000654A4FF00003654CC2E91E34624A4FF0E8
:104E40000003624CC2E91A345F4A4FF000034FF08E
:104E50000004C2E920345C4A4FF000034FF0000424
:104E6000C2E91434584A4FF000034FF00004C2E97D
:104E70001834554A4FF000034FF00004C2E92234C1
:104E8000514A4FF000034FF00004C2E91C3448E1DE
:104E90007B6B1B78002B1FD14B4B93F81531002BEC
:104EA0001AD0484BD3F820323A6B1288934213D36E
:104EB000444BD3F82032434AB2F8242293420BD316
:104EC000404B012283F845223E4B0022C3F82022AA
:104ED0003868FFF7CDFE24E17B6B1B78002B00F0D8
:104EE0002081394B93F81531002B00F01A81354B96
:104EF000D3F820323A6B12889342C0F01281314BC2
:104F0000D3F820322F4AB2F824229342C0F009810C
:104F10002C4B022283F845222A4B0022C3F8202280
:104F20003868FFF7A5FEFCE0274A4FF00003274C46
:104F3000C2E92434244A4FF00003244CC2E910345F
:104F4000214A4FF00003214CC2E91E341E4A4FF0A3
:104F500000034FF00004C2E914341B4A4FF0000371
:104F60004FF00004C2E91834174A4FF00003174C01
:104F7000C2E92034144A4FF000034FF00004C2E9A4
:104F80002234114B93F81531002B21D00D4BD3F85F
:104F900020323A6B128893421AD30A4BD3F820324C
:104FA000084AB2F82422934212D3064B022283F815
:104FB0004522044B0022C3F820223868FFF758FE30
:104FC000B1E000BFD8680020C06700200000F03FBB
:104FD000FB8B584AB2F82C2113447B617B69B3F5F3
:104FE000803F02D34FF6FF737B613B6B1B881A46F1
:104FF0007B699B1ABB61BA697B699A4201D900231C
:10500000BB614D4BD3F82032BA699A4200F28B80D3
:10501000494B032283F84522474B0022C3F8202244
:10502000464A4FF000034FF00004C2E92434434ADB
:105030004FF000034FF00004C2E910343F4A4FF034
:1050400000033F4CC2E91E343C4A4FF000033C4C85
:10505000C2E91A34394A4FF000034FF00004C2E9A4
:105060002034364A4FF000034FF00004C2E91434F4
:10507000324A4FF000034FF00004C2E918342F4ABF
:105080004FF000034FF00004C2E922342B4A4FF0E6
:1050900000034FF00004C2E91C3444E0274A4FF0FB
:1050A00000034FF00004C2E92434244A4FF0000307
:1050B0004FF00004C2E91034204A4FF00003204CA6
:1050C000C2E91E341D4A4FF000034FF00004C2E94C
:1050D00020341A4A4FF000034FF00004C2E91434A0
:1050E000164A4FF000034FF00004C2E91834134A87
:1050F0004FF000034FF00004C2E922340E4BD3F806
:1051000020323A6B128893420FD30B4B012283F863
:105110004522094B0022C3F820223868FFF7A8FD7A
:1051200003E000BF02E000BF00E000BF00BF243783
:10513000BD4690BD80060020D8680020C0670020D2
:105140000000F03F90B482B000AF78607B681B68CD
:105150001E4AC2F8B0301D4A4FF000031C4CC2E991
:1051600010341A4A4FF00003194CC2E91E34174A92
:105170004FF000034FF00004C2E91C34134A4FF013
:1051800000034FF00004C2E91434104A4FF000034A
:105190004FF00004C2E918340C4A4FF000034FF0FE
:1051A0000004C2E91A34094A4FF00003084CC2E96E
:1051B0002034064A4FF000034FF00004C2E92234C5
:1051C00000BF0837BD4690BC704700BFC0670020D5
:1051D0000000F03F90B482B000AF78607B681B683D
:1051E0001E4AC2F8B0301D4A4FF000031C4CC2E901
:1051F00010341A4A4FF00003194CC2E91E34174A02
:105200004FF000034FF00004C2E91C34134A4FF082
:1052100000034FF00004C2E91434104A4FF00003B9
:105220004FF00004C2E918340C4A4FF000034FF06D
:105230000004C2E91A34094A4FF000034FF0000499
:10524000C2E92034054A4FF00003054CC2E922347C
:1052500000BF0837BD4690BC704700BFC067002044
:105260000000F03F80B582B000AF78607B685B687B
:10527000012B08D17B681B7A002B04D07B681B694B
:105280001846FEF709F800BF0837BD4680BD80B557
:1052900082B000AF78607868FFF7E4FF00BF08379E
:1052A000BD4680BD80B582B000AF78607B681B785A
:1052B000002B05D17B6801221A707868FFF7E7FFA1
:1052C00000BF0837BD4680BD80B582B000AF7860B2
:1052D0007B685B68012B0DD17B681B7A002B09D0A2
:1052E0007B681B691846FDF7E1F97B681B69184666
:1052F000FDF7E6F900BF0837BD4680BD80B582B036
:1053000000AF78607868FFF7DFFF00BF0837BD4661
:1053100080BD80B582B000AF78607B681B78002BC1
:1053200005D17B6801221A707868FFF7E7FF00BF9C
:105330000837BD4680BD80B582B000AF78607B681D
:105340005B68012B08D17B681B7A002B04D07B683B
:105350001B691846FEF787F900BF0837BD4680BDB8
:1053600080B582B000AF78607868FFF7E4FF00BFD7
:105370000837BD4680BD80B582B000AF78607B68DD
:105380001B78002B05D17B6801221A707868FFF723
:10539000E7FF00BF0837BD4680BD80B582B000AFD3
:1053A00078607B685B68012B08D17B681B7A002BD7
:1053B00004D07B681B691846FEF755F900BF083713
:1053C000BD4680BD80B582B000AF78607868FFF7D9
:1053D000E4FF00BF0837BD4680BD80B582B000AF96
:1053E00078607B681B78002B05D17B6801221A70DE
:1053F0007868FFF7E7FF00BF0837BD4680BD80B57E
:1054000082B000AF78607B685B68012B0DD17B6850
:105410001B7A002B09D07B681B691846FDF746FBF9
:105420007B681B691846FDF757FB00BF0837BD4670
:1054300080BD80B582B000AF78607868FFF7DFFF8D
:1054400000BF0837BD4680BD80B582B000AF786030
:105450007B681B78002B05D17B6801221A70786865
:10546000FFF7E7FF00BF0837BD4680BD80B582B0BB
:1054700000AF78607B685B68012B08D17B681B7A82
:10548000002B04D07B681B691846FDF705FF00BFA1
:105490000837BD4680BD80B582B000AF78607868BF
:1054A000FFF7E4FF00BF0837BD4680BD80B582B07E
:1054B00000AF78607B681B78002B05D17B680122E8
:1054C0001A707868FFF7E7FF00BF0837BD4680BD58
:1054D00080B582B000AF78607B685B68012B08D133
:1054E0007B681B7A002B04D07B689B6A1846FDF70B
:1054F00094F900BF0837BD4680BD80B582B000AFCB
:1055000078607868FFF7E4FF00BF0837BD4680BDCC
:1055100080B582B000AF78607B681B78002B05D126
:105520007B6801221A707868FFF7E7FF00BF083731
:10553000BD4680BD80B483B000AF78607B685B6897
:10554000012B02D17B6802225A6000BF0C37BD4696
:105550005DF8047B704780B582B000AF78607868F2
:10556000FFF7E8FF00BF0837BD4680BD80B582B0B9
:1055700000AF78607B681B78002B05D17B68012227
:105580001A707868FFF7E7FF00BF0837BD4680BD97
:1055900080B584B000AF78607B6800221A727B68A7
:1055A00001225A60144B4FF0FF321A62124B002254
:1055B0005A62114B1B6A0A2200211048FDF7E4FAD7
:1055C00002467B681A617B681B694FF4E13118461B
:1055D000FDF7B0FD0123FB730023BB737B681869E3
:1055E000FB7BBA7B0821FDF7B1FD7B6801221A72B3
:1055F00000BF1037BD4680BDC0670020E4670020B3
:1056000080B584B000AF78607B6800221A727B6836
:1056100001225A60144B4FF0FF329A61124B002264
:10562000DA61114B9A690A2300211048FDF7ACFAA0
:1056300002467B681A617B681B694FF4E1311846AA
:10564000FDF778FD0123FB730023BB737B681869AA
:10565000FB7BBA7B0821FDF779FD7B6801221A727A
:1056600000BF1037BD4680BDC0670020DC6700204A
:1056700080B588B002AF78607B6800221A727B68C0
:1056800001225A600023FB7500233B61FB7D194614
:105690003869FDF71FF802467B689A627B68494AC1
:1056A0005A627B689A6A7B685B6A19461046FDF706
:1056B00035F82B233B7340237B737B68986A07F193
:1056C0000C02002301930023009302231D21FDF708
:1056D00070F84FF4FA7004F02DFE2A23FB727B68F9
:1056E000986A07F10B020023019301230093012321
:1056F0001D21FDF75EF80346FB72FB7A002B14D1E7
:105700007B68986A07F10B02012301930023009341
:1057100001231D21FDF719F807F10B0107F10F0314
:1057200001221846FCF79EFD01E00023FB732A23AB
:105730003B73FB7B23F00103DBB27B737B68986ACE
:1057400007F10C02002301930023009302231D2183
:10575000FDF72FF80E233B7301237B737B68986A58
:1057600007F10C02002301930023009302231D2163
:10577000FDF71FF85B233B7300237B737B68986AFC
:1057800007F10C02002301930023009302231D2143
:10579000FDF70FF82A233B7301237B737B68986A1C
:1057A00007F10C02002301930023009302231D2123
:1057B000FCF7FFFF7B6801221A7200BF1837BD4655
:1057C00080BD00BFA08601002DE9F04FA3B002AF5D
:1057D000FEF7B0FFB04BD3E92201B04BD3E90A3456
:1057E0001A462346FBF780FB0346002B05D1AB4B43
:1057F000D3E90A34A84AC2E92234A74BD3F880007F
:1058000007F1600314221946FDF7B4FC034687F83C
:10581000773007F1600314221946A148FCF722FDF6
:105820009D4BB3F82832B3F5FF7F07D89A4BB3F8F6
:10583000283201339BB2984AA2F82832964B93F84B
:105840003E32002B38D1944A012382F83E32924AEC
:10585000042382F83F32924A002382F8FC30904AB7
:10586000002382F812318E4A3C23A2F8C4308C4ABD
:105870007823A2F8C6308A4A0423A2F8C830884A9E
:105880000423A2F8CA30864A2823A2F8CC30844ADE
:105890002823A2F8CE30824AFA23A2F8D030804AD8
:1058A0004FF4A073A2F8D230002387F87F307C4AEF
:1058B000002382F813310FE1774B93F83F32013B1D
:1058C000042B3FD801A252F823F000BFE15800009A
:1058D00005590000155900002559000035590000F0
:1058E000012387F87F306C4BB3F82832B3F5FA7F89
:1058F000C0F0EF80684A062382F83F32002387F821
:105900007F30E6E0644A062382F83F32002387F8BE
:105910007F30E1E0604A062382F83F32002387F8B7
:105920007F30D9E05C4A062382F83F32002387F8B3
:105930007F30D1E0584A062382F83F32002387F8AF
:105940007F30C9E0002387F87F3097F87730002B4D
:1059500040F0C180524B1B78162B40F0B580504B65
:105960005B78022B0BD14C4A012382F83F324A4A22
:105970000023A2F82832012387F87F30ABE0484BA0
:105980005B78012B7BD1444A052382F83F32444B9C
:105990009B78434A82F8FC30414BDB78002B14BFE4
:1059A00001230023DBB23E4A82F812313C4B5B7983
:1059B0001B021AB23A4B1B791BB213431BB29BB2A8
:1059C000374AA2F8C430364BDB791B021AB2344B8B
:1059D0009B791BB213431BB29BB2314AA2F8C6306B
:1059E0002F4B5B7A1B021AB22D4B1B7A1BB213434F
:1059F0001BB29BB22A4AA2F8C830294BDB7A1B02A1
:105A00001AB2274B9B7A1BB213431BB29BB2244A98
:105A1000A2F8CA30224B5B7B1B021AB2204B1B7BC5
:105A20001BB213431BB29BB21D4AA2F8CC301C4BD5
:105A3000DB7B1B021AB21A4B9B7B1BB213431BB2BC
:105A40009BB2174AA2F8CE30154B5B7C1B021AB2F0
:105A5000134B1B7C1BB213431BB29BB2104AA2F820
:105A6000D0300F4BDB7C1B021AB20D4B9B7C1BB260
:105A700013431BB29BB20A4AA2F8D2302BE0084B68
:105A80005B78032B0ED1044A022382F83F32044A8A
:105A9000012382F813311EE0D86800208006002020
:105AA000C0670020BA4B5B78052B08D1B94A0323A5
:105AB00082F83F32B64A002382F813310BE0B54A30
:105AC000062382F83F3206E0B24A062382F83F32CC
:105AD00001E000BF00E000BFAD4BB3F8D030AD4AED
:105AE000A2F82432AA4BB3F8D230AA4AA2F826323E
:105AF000A74B93F8FC30A64A82F8E630A44BB3F8E3
:105B0000C430A34AA2F8B430A14BB3F8C630A04ABF
:105B1000A2F8B6309E4BB3F8C8309D4AA2F8B83010
:105B20009B4BB3F8CA309A4AA2F8BA30984BB3F8F4
:105B3000CC30974AA2F8BC30954BB3F8CE30944A9B
:105B4000A2F8BE30934BB3F82432914AA2F8C03089
:105B5000904BB3F826328E4AA2F8C23097F87F30C5
:105B6000002B4CD08B4A012382F84632884B93F8A5
:105B70001231874A82F8E730012287498748FCF7CB
:105B800071FB012286498748FCF76CFB012286499C
:105B90008648FCF767FB012285498648FCF762FBD3
:105BA000022285498548FCF75DFB0222844985482D
:105BB000FCF758FB022284498448FCF753FB02227D
:105BC00083498448FCF74EFB022283498348FCF753
:105BD00049FB022282498348FCF744FB02228249A6
:105BE0008248FCF73FFB022281498248FCF73AFBDE
:105BF000814B93F84131664A82F8113121E0654BBF
:105C000093F84632002B1CD00023BB670CE07A4B84
:105C100093F85A115E4ABB6F134403F1E8020B4636
:105C20001370BB6F0133BB67BB6F132BEFDD724B80
:105C300093F84031564A82F81131564A002382F8CF
:105C40004632534B93F81331002B00F0BF83514A77
:105C5000012382F847324F4BD3E92A01664BD3E93F
:105C60000E341A462346FBF73FF90346002B05D1B5
:105C7000614BD3E90E34474AC2E92A34454BD3F885
:105C8000A0301846FCF708FD424BD3F8A00007F1FE
:105C9000580307221946FCF7A3FC3E4BD3E9320117
:105CA000554BD3E90C341A462346FBF71DF903463E
:105CB000002B05D1504BD3E90C34364AC2E93234BB
:105CC000344BD3F8C0301846FCF7E6FC314BD3F820
:105CD000C00007F1500307221946FCF781FC97ED3D
:105CE000167BB0EE470AF0EE670A06F021FDB0EE33
:105CF000407AF0EE607A87ED167B97ED167BB0EE7A
:105D0000470AF0EE670A02F09DFA0346002B0AD11B
:105D100097ED167BB0EE470AF0EE670A02F06AFADA
:105D20000346002B06D04FF000034FF00004C7E9F4
