:1000000000000020F5040000232E0000292E00002F
:100010002F2E0000352E00003B2E000000000000B7
:100020000000000000000000000000006505000066
:10003000412E0000000000000B0600006B060000CF
:10004000B12C0000BF2C0000CD2C0000DB2C0000E8
:10005000E92C0000F72C0000052D0000132D0000F6
:10006000212D00002F2D00003D2D00004B2D000004
:10007000592D0000672D0000752D0000832D000014
:10008000912D0000472E00004D2E0000532E000041
:10009000592E00005F2E0000652E00006B2E000020
:1000A000712E0000772E00007D2E0000832E0000B0
:1000B000892E00008F2E0000952E00009F2D00003D
:1000C0009B2E0000AD2D0000A12E0000BB2D0000D6
:1000D000A72E0000C92D0000AD2E0000B32E000099
:1000E000B92E0000BF2E0000C52E0000CB2E000050
:1000F000D12E0000D72E0000DD2E0000E32E0000E0
:1001000005050000050500000505000005050000C7
:10011000E92E0000EF2E0000F52E0000FB2E00005F
:10012000012F0000072F00000D2F0000132F0000EB
:10013000192F00001F2F0000252F00002B2F00007B
:10014000312F0000372F0000D72D00003D2F000079
:10015000E52D0000432F0000492F00004F2F000025
:10016000552F00005B2F0000612F0000672F00005B
:100170006D2F0000732F0000792F00007F2F0000EB
:10018000852F00000505000005050000050500009D
:100190000505000005050000050500000505000037
:1001A0000505000005050000050500000505000027
:1001B0000505000005050000050500000505000017
:1001C0000505000005050000050500000505000007
:1003F000050500000505000005050000FFFFFFFFE3
:10040000FFFFFFFFFFFFFFFFFFFFFFFFFEFFFFFFFD
:1004400010B5054C237833B9044B13B10448AFF30E
:1004500000800123237010BD800E002000000000EA
:10046000CCBD000008B5034B1BB103490348AFF3F3
:10047000008008BD00000000840E0020CCBD0000FC
:10048000154B002B08BF134B9D46A3F5803A002166
:100490008B460F461348144A121A08F0ADFC0F4B56
:1004A000002B00D098470E4B002B00D0984700201F
:1004B000002104000D000D48002802D00C4808F06F
:1004C00079F908F0C1F92000290002F0CDFB08F00D
:1004D0007DF900BF000008000000002000000000BF
:1004E00099290000800E0020D4400020B58700002C
:1004F000ED87000072B604F0B3FD04F04BFD62B668
:10050000FFF7BEFFFFF7FEBF80F309887047EFF3E8
:1005100009807047684680F309885A480078C00708
:1005200014BF0220032080F314887047DFF858C1FD
:10053000EFF305831B0618BF6047EFF31483DB0757
:1005400008BF604700DF7047DFF840C1EFF3058365
:100550001B0618BF6047EFF31483DB0708BF604733
:1005600000DF7047EFF30980816911F8021CE1BBDD
:1005700090E80F1010B5E047BDE81040EFF3098C8C
:100580008CE80700424B93E80600914208BF704791
:1005900041B91EF0100F16D13E49086820F0010045
:1005A000086010E01EF0100F06BF2CED108A01202D
:1005B000002081F825002CE9F00FC1F828C00CB408
:1005C00006F02CF90CBC1A60D2F828C0BCE8F00F79
:1005D00092F8250000280EBF6FF0020E6FF0120E89
:1005E000BCEC108A8CF30988704710B52A4A12684F
:1005F000914209D8294C54F8214090E80F10A047A7
:10060000EFF3098C8CE80F0010BD10B506F08AF8E6
:10061000BDE810401E4B93E80600914208BF7047AA
:10062000EFF3098C1EF0100F06BF2CED108A01208D
:10063000002081F825002CE9F00FC1F828C00CB487
:1006400006F0ECF80CBC1A60D2F828C0BCE8F00F39
:1006500092F8250000280EBF6FF0020E6FF0120E08
:10066000BCEC108A8CF30988704710B506F0B8F816
:10067000FFF7CEBF10B506F0B1F806F0B1F8FFF7FE
:10068000C7BF000068B20000A9600000C56000009C
:100690007040002034EF00E000000000FCFFFFFF8E
:1006A00081F0004102E000BF83F0004330B54FEA23
:1006B00041044FEA430594EA050F08BF90EA020F90
:1006C0001FBF54EA000C55EA020C7FEA645C7FEA23
:1006D000655C00F0E2804FEA5454D4EB5555B8BF46
:1006E0006D420CDD2C4480EA020281EA030382EAB7
:1006F000000083EA010180EA020281EA0303362D49
:1007000088BF30BD11F0004F4FEA01314FF4801C1B
:100710004CEA113102D0404261EB410113F0004F2D
:100720004FEA03334CEA133302D0524263EB4303E4
:1007300094EA050F00F0A780A4F10104D5F1200E82
:100740000DDB02FA0EFC22FA05F2801841F10001DD
:1007500003FA0EF2801843FA05F359410EE0A5F1B1
:1007600020050EF1200E012A03FA0EFC28BF4CF0E2
:10077000020C43FA05F3C01851EBE37101F0004598
:1007800007D54FF0000EDCF1000C7EEB00006EEBA5
:100790000101B1F5801F1BD3B1F5001F0CD349082F
:1007A0005FEA30004FEA3C0C04F101044FEA445286
:1007B00012F5800F80F09A80BCF1004F08BF5FEA0D
:1007C000500C50F1000041EB045141EA050130BDED
:1007D0005FEA4C0C404141EB010111F4801FA4F190
:1007E0000104E9D191F0000F04BF01460020B1FAE5
:1007F00081F308BF2033A3F10B03B3F120020CDA1D
:100800000C3208DD02F1140CC2F10C0201FA0CF0FA
:1008100021FA02F10CE002F11402D8BFC2F1200C5F
:1008200001FA02F120FA0CFCDCBF41EA0C01904015
:10083000E41AA2BF01EB0451294330BD6FEA04045E
:100840001F3C1CDA0C340EDC04F11404C4F1200249
:1008500020FA04F001FA02F340EA030021FA04F35B
:1008600045EA030130BDC4F10C04C4F1200220FAB2
:1008700002F001FA04F340EA0300294630BD21FAF0
:1008800004F0294630BD94F0000F83F4801306BFB6
:1008900081F480110134013D4EE77FEA645C18BFAA
:1008A0007FEA655C29D094EA050F08BF90EA020F41
:1008B00005D054EA000C04BF1946104630BD91EA39
:1008C000030F1EBF0021002030BD5FEA545C05D13C
:1008D0004000494128BF41F0004130BD14F580047B
:1008E0003CBF01F5801130BD01F0004545F0FE41EF
:1008F00041F470014FF0000030BD7FEA645C1ABF24
:10090000194610467FEA655C1CBF0B46024650EA5A
:10091000013406BF52EA033591EA030F41F4002186
:1009200030BD00BF90F0000F04BF0021704730B50C
:100930004FF4806404F132044FF000054FF00001E1
:1009400050E700BF90F0000F04BF0021704730B5A2
:100950004FF4806404F1320410F0004548BF404277
:100960004FF000013EE700BF42004FEAE2014FEACC
:1009700031014FEA02701FBF12F07F4393F07F4FA7
:1009800081F06051704732F07F4208BF704793F0AA
:100990007F4F04BF41F40021704730B54FF46074BD
:1009A00001F0004521F000411CE700BF50EA0102C0
:1009B00008BF704730B54FF000050AE050EA010269
:1009C00008BF704730B511F0004502D5404261EBD9
:1009D00041014FF4806404F132045FEA915C3FF41A
:1009E000D8AE4FF003025FEADC0C18BF03325FEAB7
:1009F000DC0C18BF033202EBDC02C2F1200300FA68
:100A000003FC20FA02F001FA03FE40EA0E0021FA8C
:100A100002F11444BDE600BF70B54FF0FF0C4CF47A
:100A2000E06C1CEA11541DBF1CEA135594EA0C0F2C
:100A300095EA0C0F00F0DEF82C4481EA030621EA67
:100A40004C5123EA4C5350EA013518BF52EA0335A2
:100A500041F4801143F4801338D0A0FB02CE4FF054
:100A60000005E1FB02E506F00042E0FB03E54FF084
:100A70000006E1FB03569CF0000F18BF4EF0010E7C
:100A8000A4F1FF04B6F5007F64F5407404D25FEA78
:100A90004E0E6D4146EB060642EAC62141EA55512B
:100AA0004FEAC52040EA5E504FEACE2EB4F1FD0C6D
:100AB00088BFBCF5E06F1ED8BEF1004F08BF5FEAEB
:100AC000500E50F1000041EB045170BD06F000469D
:100AD00046EA010140EA020081EA0301B4EB5C044A
:100AE000C2BFD4EB0C0541EA045170BD41F4801142
:100AF0004FF0000E013C00F3AB8014F1360FDEBF67
:100B0000002001F0004170BDC4F10004203C35DA42
:100B10000C341BDC04F11404C4F1200500FA05F3C5
:100B200020FA04F001FA05F240EA020001F0004266
:100B300021F0004110EBD37021FA04F642EB0601DC
:100B40005EEA430E08BF20EAD37070BDC4F10C0406
:100B5000C4F1200500FA04F320FA05F001FA04F2CA
:100B600040EA020001F0004110EBD37041F10001B6
:100B70005EEA430E08BF20EAD37070BDC4F12005C1
:100B800000FA05F24EEA020E20FA04F301FA05F229
:100B900043EA020321FA04F001F0004121FA04F2D1
:100BA00020EA020000EBD3705EEA430E08BF20EAA1
:100BB000D37070BD94F0000F0FD101F000464000DB
:100BC00041EB010111F4801F08BF013CF7D041EA5D
:100BD000060195F0000F18BF704703F00046520061
:100BE00043EB030313F4801F08BF013DF7D043EA32
:100BF0000603704794EA0C0F0CEA135518BF95EAE8
:100C00000C0F0CD050EA410618BF52EA4306D1D16E
:100C100081EA030101F000414FF0000070BD50EA8D
:100C2000410606BF1046194652EA430619D094EA17
:100C30000C0F02D150EA013613D195EA0C0F05D101
:100C400052EA03361CBF104619460AD181EA030155
:100C500001F0004141F0FE4141F470014FF000000D
:100C600070BD41F0FE4141F4780170BD70B54FF0A8
:100C7000FF0C4CF4E06C1CEA11541DBF1CEA135528
:100C800094EA0C0F95EA0C0F00F0A7F8A4EB05040A
:100C900081EA030E52EA03354FEA013100F0888001
:100CA0004FEA03334FF0805545EA131343EA1263CA
:100CB0004FEA022245EA111545EA10654FEA00267F
:100CC0000EF000419D4208BF964244F1FD0404F538
:100CD000407402D25B084FEA3202B61A65EB030594
:100CE0005B084FEA32024FF480104FF4002CB6EB51
:100CF000020E75EB030E22BFB61A754640EA0C00D1
:100D00005B084FEA3202B6EB020E75EB030E22BF10
:100D1000B61A754640EA5C005B084FEA3202B6EB51
:100D2000020E75EB030E22BFB61A754640EA9C0010
:100D30005B084FEA3202B6EB020E75EB030E22BFE0
:100D4000B61A754640EADC0055EA060E18D04FEA9E
:100D5000051545EA16754FEA06164FEAC30343EA3E
:100D600052734FEAC2025FEA1C1CC0D111F4801F0B
:100D70000BD141EA00014FF000004FF0004CB6E704
:100D800011F4801F04BF01430020B4F1FD0C88BFA3
:100D9000BCF5E06F3FF6AFAEB5EB030C04BFB6EBAE
:100DA000020C5FEA500C50F1000041EB045170BDA1
:100DB0000EF0004E4EEA113114EB5C04C2BFD4EBCE
:100DC0000C0541EA045170BD41F480114FF0000E52
:100DD000013C90E645EA060E8DE60CEA135594EACE
:100DE0000C0F08BF95EA0C0F3FF43BAF94EA0C0FD1
:100DF0000AD150EA01347FF434AF95EA0C0F7FF446
:100E000025AF104619462CE795EA0C0F06D152EA99
:100E100003353FF4FDAE1046194622E750EA41067D
:100E200018BF52EA43067FF4C5AE50EA41047FF48E
:100E30000DAF52EA43057FF4EBAE12E74FF0FF3CF3
:100E400006E000BF4FF0010C02E000BF4FF0010CC4
:100E50004DF804CD4FEA410C7FEA6C5C4FEA430C3D
:100E600018BF7FEA6C5C1BD001B050EA410C0CBF8C
:100E700052EA430C91EA030F02BF90EA020F0020EE
:100E8000704710F1000F91EA030F58BF994208BF55
:100E900090422CBFD8176FEAE37040F00100704712
:100EA0004FEA410C7FEA6C5C02D150EA013C07D169
:100EB0004FEA430C7FEA6C5CD6D152EA033CD3D0B4
:100EC0005DF8040B704700BF8446104662468C46AE
:100ED0001946634600E000BF01B5FFF7B7FF0028E1
:100EE00048BF10F1000F01BD4DF808EDFFF7F4FF0A
:100EF0000CBF012000205DF808FB00BF4DF808ED95
:100F0000FFF7EAFF34BF012000205DF808FB00BFB7
:100F10004DF808EDFFF7E0FF94BF012000205DF8D9
:100F200008FB00BF4DF808EDFFF7CEFF94BF01208E
:100F300000205DF808FB00BF4DF808EDFFF7C4FF87
:100F400034BF012000205DF808FB00BF4FEA4102DA
:100F500012F5001215D211D56FF47873B3EB62520B
:100F600012D94FEAC12343F0004343EA505311F032
:100F7000004F23FA02F018BF404270474FF00000C4
:100F8000704750EA013005D111F0004008BF6FF002
:100F9000004070474FF00000704700BF4A0011D278
:100FA00012F5001211D20DD56FF47873B3EB6252C3
:100FB0000ED44FEAC12343F0004343EA505323FACF
:100FC00002F070474FF00000704750EA013002D144
:100FD0004FF0FF3070474FF00000704753B94AB9E7
:100FE000002908BF00281CBF4FF0FF314FF0FF3031
:100FF00001F0F8B8ADF1080C6DE904CE00F006F888
:10100000DDF804E0DDE9022304B070472DE9F04784
:10101000089E04468846002B4BD18A42154667D964
:10102000B2FA82F24AB1C2F1200701FA02F320FAC1
:1010300007F7954047EA030894404FEA154E230C02
:10104000B8FBFEF71FFA85FC0EFB178843EA08433E
:1010500007FB0CF1994209D9EB1807F1FF3080F03A
:101060001B81994240F21881023F2B445B1AA4B2C3
:10107000B3FBFEF00EFB103344EA034400FB0CFC10
:10108000A44509D92C1900F1FF3380F00781A4454C
:1010900040F2048102382C4440EA0740A4EB0C04DF
:1010A00000271EB1D4400023C6E900433946BDE8FD
:1010B000F0878B4209D9002E00F0EB800027C6E9AB
:1010C000000138463946BDE8F087B3FA83F7002FB0
:1010D00047D18B4202D3824200F2FA80841A61EB3C
:1010E000030301209846002EE0D0C6E90048DDE762
:1010F00002B9FFDEB2FA82F2002A40F08F80491B6B
:101100004FEA154E1FFA85F80127B1FBFEFC230CB0
:101110000EFB1C1143EA014308FB0CF1994207D96D
:10112000EB180CF1FF3002D2994200F2CD808446D8
:10113000591AA3B2B1FBFEF00EFB101443EA0444AB
:1011400008FB00F8A04507D92C1900F1FF3302D2A3
:10115000A04500F2B6801846A4EB080440EA0C4013
:101160009FE7C7F1200CBB4022FA0CFE4EEA030EAB
:1011700001FA07F420FA0CF521FA0CF34FEA1E48A5
:101180002543B3FBF8F92C0C08FB19331FFA8EFA30
:1011900044EA034309FB0AF49C4202FA07F200FA0C
:1011A00007F10BD91EEB030309F1FF3080F08780B4
:1011B0009C4240F28480A9F1020973441B1BADB22A
:1011C000B3FBF8F008FB103345EA034400FB0AFACE
:1011D000A24508D91EEB040400F1FF336BD2A245EF
:1011E00069D90238744440EA0940A0FB0289A4EBA3
:1011F0000A044C45C2464B4654D351D0002E69D008
:10120000B1EB0A0564EB030404FA0CFCFD40FC405E
:101210004CEA0505C6E90054002747E7C2F1200360
:1012200020FA03F7954001FA02F021FA03F34FEA9E
:10123000154E3843010CB3FBFEF71FFA85F80EFB81
:10124000173341EA034107FB08F38B4204FA02F427
:1012500007D9691807F1FF3C2FD28B422DD9023FE5
:101260002944CB1A81B2B3FBFEF00EFB103341EAE6
:10127000034100FB08F38B4207D9691800F1FF3CDA
:1012800017D28B4215D902382944C91A40EA0747B8
:101290003BE73746304609E70746E7E61846FBE6F0
:1012A0004145ABD2B8EB020A69EB0E020138134696
:1012B000A4E76046E9E7184695E76746D1E7814627
:1012C0007CE702382C4447E7ACF1020C2B442FE7B3
:1012D000384608E73746E9E603685A004CBF43F052
:1012E000004323F000431844704700BF61B32DE969
:1012F000F84F01F1FF3A90460646D146002707EB2A
:10130000090404EBD4746410E50071190846FFF772
:10131000E3FFA245834605F10800304409D0FFF7FA
:10132000DBFFC34500F1FF3005D8404509D2671CFB
:10133000E5E7C34505D9A74202D004F1FF39DEE74E
:1013400000210846BDE8F88F08467047012807D0FD
:10135000022807D0044B00280CBF18460020704715
:101360000248704702487047391A00003D1A0000D1
:10137000411A000030B5254B83B004468D1E4BB397
:1013800001A92846AFF30080F0B101992A46FFF782
:10139000ADFF0146C0B1FFF79FFF4B68A064012B72
:1013A0002ED0002B01F1040026DBFFF795FF002370
:1013B000C4E913030368002B12DBFFF78DFF002342
:1013C0002061184603B030BD00232361092318466D
:1013D00003B030BD0E490F48091AC9100191D5E775
:1013E000C3F30360FFF7B2FF002814BF00230923F3
:1013F0002061184603B030BD0123C4E91303D9E7C7
:10140000002323610523184603B030BD000000000F
:1014100038C20000D0BF00000368DA0710B50446E8
:1014200006D49B0700F1480009D500F05FFC236853
:10143000590709D51A070ED5DB0613D510BD00F0E4
:101440004DFC23685907F5D404F1D00000F056FC98
:1014500023681A07F0D404F5A87000F057FC23683D
:10146000DB06EBD404F5E870BDE8104000F092BC58
:10147000036803B103441846704700BF0920704752
:10148000704700BF70B504460D4608E02B6C6361E1
:101490002A462369214601209847082808D1296C4B
:1014A0002046FFF767FF06460028EFD007F05CF9FB
:1014B0000728FBD13046296CFFF7E2FF281D00F01A
:1014C00001FC00BF2DE9F0470C1D054617460FCC67
:1014D000ADF5727D03AE0FC60FCC0FC60FCC0FC695
:1014E00094E80F0002ACD5F80C80D5F8189086E887
:1014F0000F000023236021E0236C6B614FF4F07236
:1015000021467AA800F070FE2B697AAA2946304657
:101510009847889BCDE900498246636431462B4653
:101520002A460120C0470746F8B94FF4F0727AA95D
:10153000204600F059FEBAF1080F1CD1216C284654
:10154000FFF718FF002F08BF0926074618BF0A2615
:101550000028D1D0A36B46F01001CDE900492A46FE
:10156000636401202B46C04700B1092738460DF5BA
:10157000727DBDE8F087BAF1070FF6D13846216CCD
:10158000FFF77EFF03A800F09DFB00BF406C704793
:10159000F0B5CB6B0B640D1D0F4606460FCDF9B0B1
:1015A00001AC0FC40FCD0FC40FCD0FC495E80F00D1
:1015B0004FF0FF3584E80F00009506E033696A4676
:1015C000314698470828044608D110993046FFF75D
:1015D000D1FE0028F2D0092079B0F0BD6846FFF7AF
:1015E0001BFF062CF7D139463046FFF74BFF00BFF3
:1015F00030B4DD6BC160826119461D64002230BCCD
:1016000060E700BF70B5C66843690B64BEB9036983
:101610000A4604460D46014602209847072807D08F
:10162000082803D129462046FFF72CFF07F09CF835
:101630003046296CFFF724FF281D00F043FB0122F0
:10164000FFF740FF07F090F8C2681AB1CA6B0A644E
:10165000002237E79CE700BF704700BF836813B1E3
:101660000146012018477047042907D8DFE801F038
:101670000308060808000BB90F2A03D90220704797
:101680000120704700EB820218465368009A1360ED
:10169000704700BF10B584B0002303AC0A46009425
:1016A0001946FFF7E1FF039804B010BD042907D8DD
:1016B000DFE801F00308060808000BB90F2A03D978
:1016C000022070470120704700EB8200009A1268E8
:1016D00042601846704700BF10B584B004AC0023C8
:1016E00044F8042D0A4600941946FFF7DFFF04B0C2
:1016F00010BD00BFF0B5D36B1364151D07460E4631
:101700000FCDADF50F7D17AC0FC40FCD0FC40FCDAE
:101710000FC495E80F004FF0FF3584E80F001695D1
:1017200010E016A8FFF7D8FF314616A8B84716AA4A
:10173000694678B9049B08209847052804460AD0D2
:10174000092807D026996846FFF714FE6A460C213F
:101750000028E6D0092416A8FFF75EFE20460DF506
:101760000F7DF0BD2DE9F04F0D46C96C89B00C1D01
:10177000164600F0030B0A6806941F46002B68D03B
:10178000130CD9B212048DF81D30022304EB81042E
:1017900005928DF81C302B6DBBF1020F08BFAC6BAE
:1017A00013F0010346D1019300F008030093D4F82D
:1017B0000090B9F1000F00F0F380022F45D0B4F88B
:1017C0000090B4F802800434AB6C28F0010A0F21B9
:1017D00030469A44FFF75EFF824534D829F0010372
:1017E0005344834294BF002001204FEA480808F088
:1017F000020809F0010948EA0908B8F1010F3AD0D6
:1018000031D3B8F1020F1AD1236823F0004ABBF19B
:10181000000F66D130B1009A002A6CD0BAF1000FE7
:1018200000F09080002B00DA04340AF1010304EB8D
:101830008304BCE7304605A900F046FB78B10920D7
:1018400009B0BDE8F08F0020CFE7D4F80480083459
:10185000BAE7120203230592ADF81C309BE708207B
:1018600009B0BDE8F08FBBF1000F02D0002840F0B6
:10187000B48004349BE7BBF1000F18D1A8B1D4E9C0
:101880000023991C4FEAD272D9D005F158010133D7
:10189000049100F0B580201DFFF7EAFD04AB01467E
:1018A0002846AFF30080002867D108347FE70D2178
:1018B0003046D5F82080FFF7EDFE8045F5D1AB6AC4
:1018C0009C42F2D12046FFF707FD0F210246304629
:1018D000FFF702FF30462A460021FFF7FDFE0720F2
:1018E000AEE70D213046D5F82080FFF7D3FE8045C6
:1018F00032D0236896E7BAF1000F23D005F15803E0
:1019000004F10408CDF808B0DDF800900397A34671
:101910001C4602E05745B94640D040460494FFF7C4
:10192000A7FD04AB014600222846AFF3008009F171
:10193000010708F104080028ECD0D1455C46DDE938
:1019400002B7D6D130460D21FFF7A4FE049B2862D2
:10195000C5E90934062073E7AB6A9C42C9D1042269
:101960004FF00008A318C5E90AA8C5E90C232368AD
:1019700043454DDB0123019357E780460D21304657
:10198000FFF788FEB8F1020F28623ED12B46049A79
:1019900043F82C2F6B62AC62062051E75C46D1E71E
:1019A00005A9304600F090FA00287FF448AF019B6B
:1019B000002B3FF454AF0F213046FFF76BFE0E2192
:1019C00002463046FFF788FE30461A4A0F21FFF7DD
:1019D00083FE072009B0BDE8F08F2046FFF77CFCAE
:1019E00004340746AC632846AFF3008000283FF478
:1019F00026AF30463A460F21FFF76EFE07201FE75D
:101A000030460D21FFF746FE2862049B6B62C2E759
:101A10000AF1010004EB8000FFF75EFC0F21024693
:101A20003046FFF759FE30462A464146FFF754FE3E
:101A3000072005E700000000002393E6012391E65C
:101A400002238FE62DE9F0410546C4B0042906D8EB
:101A5000DFE801F04D2B05030900032B5FD00220C6
:101A600044B0BDE8F081002BF9D1102AF7D82B68DB
:101A7000DC0600F1F48022AC2046019200F094F9DB
:101A8000A86B019A0023012606FA03F1114203D044
:101A9000016844F8231004300133042BF4D1A86307
:101AA000204600F077F90020DAE7012B4FEA1246D2
:101AB00097B252D0052BD2D106EB0708B8F1200F10
:101AC000CDD80F2E40F29980B846002F40F0DB8031
:101AD000AA6BAA630F2E40F2BE80B8F1000F02D0AD
:101AE00002A800F00BF9002044B0BDE8F081002B03
:101AF000B5D1AC6B97B2281D012606FA03F1394225
:101B000003F1010302D0216801600434102B00F1BD
:101B10000400F2D112F40050E5D1AC63A0E7160C3A
:101B200097B2F319102B9AD82B681A075DD422AC00
:101B3000204600F00DF904EBC601AB6B3FB103EB9F
:101B4000C702186841F8040B04339342F9D12046C8
:101B5000AB6300F0DBF8002082E7F219102A3FF6B1
:101B60007EAF0F2E3FF67BAF2A68D10708D52846F7
:101B700022F0030240F8482B019300F0B3F8019BD8
:101B8000019322AC204600F0ADF8A96B019B002F19
:101B900000F095807F0004EBC6044FF00008043C81
:101BA00001EB870251F8040B44F8040F9142F9D17C
:101BB000B8F1000F0FD002AC102E314638BF102103
:101BC00004EBC101843902EBC80452F8040B41F85C
:101BD000040F9442F9D1012B7FF47BAF22AC043285
:101BE000AA63204600F07AF87DE723F008032B6013
:101BF00005F5A87000F0ACF899E7B8F1100F2A6865
:101C000043D9D007A8F110080BD5284622F00102CD
:101C100042F0020240F8482B019300F06BF82A686A
:101C2000019B510725D40F2E04D822A8019300F060
:101C300061F8019B019302AC204600F063F8C6F105
:101C400010010029AA6B019BB6DD22AC4F0004EB0A
:101C5000C6041146A3E722A800F048F83DE723F0A8
:101C600010032B6005F5E870019200F09DF8019AD1
:101C700001E7284622F0040240F8D02B019300F03F
:101C800041F8019BCFE72A68CBE7D0070AD5284661
:101C900022F0010242F0020240F8482B019300F0CA
:101CA00029F8019B019322AC204600F023F8B846A6
:101CB000A96B019B002F7FF46DAF0A4609E70A4626
:101CC0008DE700BF00F1340191E838009C46A6463C
:101CD0004CF8045D90E8FF0FE54600BD90EC210B49
:101CE000704700BF80EC210B704700BF90EC200BC9
:101CF000704700BF80EC200B704700BFD0EC200B7A
:101D0000704700BFC0EC200B704700BFF0EC020131
:101D1000F0EC0211F0EC0221F0EC0231F0EC0241A7
:101D2000F0EC0251F0EC0261F0EC0271F0EC028197
:101D3000F0EC0291F0EC02A1F0EC02B1F0EC02C187
:101D4000F0EC02D1F0EC02E1F0EC02F1704700BFE0
:101D5000E0EC0201E0EC0211E0EC0221E0EC0231E7
:101D6000E0EC0241E0EC0251E0EC0261E0EC0271D7
:101D7000E0EC0281E0EC0291E0EC02A1E0EC02B1C7
:101D8000E0EC02C1E0EC02D1E0EC02E1E0EC02F1B7
:101D9000704700BFB0FC0181B0FC0191B0FC01A113
:101DA000B0FC01B1704700BFA0FC0181A0FC019113
:101DB000A0FC01A1A0FC01B1704700BFEC4600B53A
:101DC0002DE900502DE9FF1F4FF000032DE90C0015
:101DD00001A9FFF7DDFBDDF840E012B0704700BF5E
:101DE000EC4600B52DE900502DE9FF1F4FF0000330
:101DF0002DE90C0001A9FFF705FCDDF840E012B069
:101E0000704700BFEC4600B52DE900502DE9FF1FDB
:101E10004FF000032DE90C0001A9FFF715FCDDF8D8
:101E200040E012B0704700BFEC4600B52DE900500D
:101E30002DE9FF1F4FF000032DE90C0001ABFFF768
:101E4000D7FBDDF840E012B0704700BFEC4600B5AC
:101E50002DE900502DE9FF1F4FF000032DE90C0084
:101E600001AAFFF747FCDDF840E012B0704700BF61
:101E7000027A82B9437AABB14268013B10B4437233
:101E800013680321141D01721A02446002605DF898
:101E9000044B180E70470368013A02721A0202607E
:101EA000180E7047B020704700B585B003AA002314
:101EB000009219460C22FFF7D7FB039805B05DF896
:101EC00004FB00BFF0E700BF2DE9F043054685B0F5
:101ED0000E464FF000083046FFF7CAFFB028044610
:101EE00000F0B180070620D500F0F003802B65D00C
:101EF000902B36D0A02B78D0B02B47D0C02B00F041
:101F00008A8000F0F803D02B0BD100F007020132D9
:101F100042F40022052301212846FFF793FD002803
:101F2000D9D0092005B0BDE8F0830DF10C090023DC
:101F300019468700CDF800900D222846FFF794FB44
:101F4000FFB2039BCDF80090043760064CBFDF1B47
:101F5000FF18002319460D2228460397FFF7A6FB1A
:101F6000B9E700F00D030D2BDBD003AF002300F029
:101F70000F02194600972846FFF776FB00230097CB
:101F800019460D222846FFF791FBA4E7B1285FD040
:101F9000B22800F0CC80B3287ED000F0FC03B42B34
:101FA000BFD000F007020132012342F4002219469B
:101FB0002846FFF747FD00288DD0B2E73046FFF7EF
:101FC00057FF24020443B4F5004FAAD02401002394
:101FD000A2B219462846FFF735FD0028A1D114F416
:101FE000004F18BF4FF0010875E7C24302F0070326
:101FF0004FF47F621A41010702F47F624FF0000341
:1020000048BF42F4804219462846FFF71BFD0028CE
:102010003FF461AF85E7C62851D0C7285AD000F0F9
:10202000F803C02B69D0C82875D0C9287FF479AFD0
:102030003046FFF71DFF020300F00F0002F470228C
:102040000130024366E7B8F1000F14D0002069E7C1
:102050003046FFF70DFF00283FF463AF10F0F003A8
:102060007FF45FAF024619462846FFF7EBFC0028D5
:102070003FF431AF55E703AC43460E22414600948E
:102080002846FFF7F1FA0094284643460F224146BE
:10209000FFF70CFB404645E73046FFF7E9FE01033A
:1020A00000F00F0001F47021421C01230A4328466E
:1020B0001946FFF7C7FC00283FF40DAF31E7304663
:1020C000FFF7D6FE010300F00F0001F47021421C5F
:1020D0000323EBE73046FFF7CBFE024600283FF430
:1020E00020AF10F0F0037FF41CAF04212846FFF767
:1020F000A9FC00283FF4EFAE13E700F00F02013215
:10210000032342F4202219462846FFF79BFC0028AF
:102110003FF4E1AE05E73046FFF7AAFE00F0F0021B
:1021200000F00F031032013343EA0232F2E60023DB
:102130000DF10C090D221946CDF800902846FFF745
:1021400093FA3046FFF794FE02064FF002070CD5D3
:10215000039B00F07F00B840034430460393FFF731
:1021600087FE030607F10707F2D4039BCDF8009022
:1021700000F07F0403F50172BC40002314441946AB
:102180000D2228460394FFF791FAA4E610B5C36C1C
:1021900084B05A6803208DF80C00DC798DF80D406E
:1021A00012020833084601A901920293FFF78CFE40
:1021B00004B010BD08B5FFF785FE806C08BD00BFF8
:1021C00008B5FFF77FFEC06CC37900EB83000830D1
:1021D00008BD00BF08B506F0C7FA00BF08B5FFF795
:1021E000F9FF00BF704700BF844641EA000313F0C7
:1021F00003036DD1403A41D351F8043B40F8043B0E
:1022000051F8043B40F8043B51F8043B40F8043BD0
:1022100051F8043B40F8043B51F8043B40F8043BC0
:1022200051F8043B40F8043B51F8043B40F8043BB0
:1022300051F8043B40F8043B51F8043B40F8043BA0
:1022400051F8043B40F8043B51F8043B40F8043B90
:1022500051F8043B40F8043B51F8043B40F8043B80
:1022600051F8043B40F8043B51F8043B40F8043B70
:1022700051F8043B40F8043B403ABDD2303211D310
:1022800051F8043B40F8043B51F8043B40F8043B50
:1022900051F8043B40F8043B51F8043B40F8043B40
:1022A000103AEDD20C3205D351F8043B40F8043B10
:1022B000043AF9D2043208D0D2071CBF11F8013B0E
:1022C00000F8013B01D30B8803806046704700BFD4
:1022D000082A13D38B078DD010F003038AD0C3F1E3
:1022E0000403D21ADB071CBF11F8013B00F8013BC5
:1022F00080D331F8023B20F8023B7BE7043AD9D384
:10230000013A11F8013B00F8013BF9D20B78037058
:102310004B7843708B7883706046704700000000F4
:1023200001F0FF01102A2BDB10F0070F08D010F886
:10233000013B013A8B422DD010F0070F42B3F6D18A
:10234000F0B441EA012141EA014122F007047FF0A3
:1023500000070023F0E80256083C85EA010586EAFA
:10236000010685FA47F5A3FA87F586FA47F6A5FA36
:1023700087F68EB9EED1F0BC01F0FF0102F0070242
:1023800032B110F8013B013A83EA010313B1F8D1ED
:102390000020704701387047002D06BF35460338CE
:1023A000073815F0010F07D1013015F4807F02BF07
:1023B000013015F4C03F0130F0BC0138704700BF58
:1023C00090F800F06DE9024520F007016FF0000C75
:1023D00010F0070491F820F040F049804FF000041D
:1023E0006FF00700D1E9002391F840F000F10800F8
:1023F00082FA4CF2A4FA8CF283FA4CF3A2FA8CF330
:102400004BBBD1E9022382FA4CF200F10800A4FA96
:102410008CF283FA4CF3A2FA8CF3E3B9D1E90423EA
:1024200082FA4CF200F10800A4FA8CF283FA4CF321
:10243000A2FA8CF37BB9D1E9062301F1200182FADB
:102440004CF200F10800A4FA8CF283FA4CF3A2FAE1
:102450008CF3002BC6D0002A04BF04301A4612BAEF
:10246000B2FA82F2FDE8024500EBD2007047D1E9F2
:10247000002304F00305C4F100004FEAC50514F081
:10248000040F91F840F00CFA05F562EA05021CBF52
:1024900063EA050362464FF00004A9E780B584B003
:1024A00000AFF860B9601346FB71BB681F2B05D9FC
:1024B0000D4B0E4AFF210E4806F05EF9FB68BA6824
:1024C00053F8223023F0807323F4E063FA79120288
:1024D00002F4E06243EA0201FB68BA6843F82210A2
:1024E00000BF1037BD4680BDB4B1000048B2000047
:1024F000C0B1000080B483B000AF78600B46FB70C1
:102500007B681B6823F01802FB78DB0003F01803DC
:102510001A437B681A6000BF0C37BD465DF8047B28
:102520007047000090B58FB000AF786187ED020B67
:1025300087ED001B524A7B695B01134411331B7802
:10254000002B40F08780002387F82830002387F88D
:102550002930002387F82A308023FB62484A7B69B0
:102560005B0113441868464A7B695B0113440433DA
:102570001968434A7B695B01134410331B781A4680
:10258000FFF78CFF3E4A7B695B01134408331B68ED
:1025900007F128021146184604F064FF384A7B69A7
:1025A0005B01134408331B68DBB20022012118468B
:1025B00004F0DCFF324A7B695B01134411330422CF
:1025C0001A702F4A7B695B01134403F11802D7E9A3
:1025D0000234C2E9003402233B7600237B76284A8A
:1025E0007B695B0113441833D3E900341846214654
:1025F000FEF7D4FC0346FB61D7E90001FEF7CEFCF1
:1026000003463B620023BB841D4A7B695B01134484
:1026100008331B681B4A52F823303B630021386B98
:10262000FFF768FF164A7B695B011344083318689B
:10263000134A7B695B0113440C331B68DAB207F160
:102640001803194604F0F0FF7B695B010C4A134440
:102650007B630FE00A4A7B695B01134411331B78EB
:10266000042B05D17B695B01054A13447B6301E0C0
:1026700000237B637B6B18463C37BD4690BD00BF93
:1026800080010020DCB7000080B483B000AF786028
:1026900000BF0C37BD465DF8047B704790B58BB02A
:1026A00000AFF86087ED000BFB687B627B6A002B54
:1026B0002CD07B6A5B7C042B28D102233B74002343
:1026C0007B747B6AD3E9063418462146FEF766FC24
:1026D00003467B61D7E90001FEF760FC0346BB615E
:1026E0000023BB837B6A9B680A4A52F823303B6213
:1026F0000021386AFFF7FEFE7B6A98687B6ADB6818
:10270000DAB207F11003194604F08EFF00BF2C3730
:10271000BD4690BDDCB7000080B485B000AF7860E6
:102720007B68FB60FB68002B06D0FB685B7C042B9E
:1027300002D1FB6800225A7400BF1437BD465DF811
:10274000047B704780B483B000AF786000BF0C3763
:10275000BD465DF8047B704780B590B000AF7860EF
:102760000B46FB70FB78002B27D107F124030022D6
:102770001A605A609A60DA601A615A612D4A7B6861
:1027800052F833307B62012387F82830012387F821
:1027900029304FF0FF333B6307F12403184605F05F
:1027A00035F8244A7B68DB00134401221A717B68E8
:1027B000DB00204A1344FB6336E0FB78012B31D168
:1027C00007F10C0300221A605A609A60DA601A61FD
:1027D0005A61184A7B6852F83330FB6001233B751D
:1027E0004FF0FF33BB6107F10C03184605F07EF88C
:1027F000104A7B68DB00134402221A717B68292B84
:102800000AD97B682C2B07D80A4A7B6852F83330E8
:102810000121184605F0A2F87B68DB00054A134445
:10282000FB6301E00023FB63FB6B18464037BD46AA
:1028300080BD00BF0400002080B586B000AF786086
:102840007B683B613B69002B0BD03B691B79012BFB
:1028500007D13B691B68184605F08EF80346FB75E7
:1028600001E00023FB753B691B681B0ADBB2FB60C0
:102870003B691B68DBB2BB60FB68022B02D1BB6803
:10288000062B05D0FB68002B09D1BB68042B06D1B1
:10289000FB7D002B0CBF01230023DBB2FB75FB7D0E
:1028A00018461837BD4680BD80B586B000AF786049
:1028B0000B46FB707B687B617B69002B2FD07B69AB
:1028C0001B79022B2BD17B691B681B0ADBB23B6196
:1028D0007B691B68DBB2FB603B69012B05D1FB68A0
:1028E000162B08D0FB68152B05D03B69042B0FD1A4
:1028F000FB681A2B0CD17B691A68FB78012B14BF7B
:1029000001230023DBB21946104605F027F806E044
:102910007B691B68FA781146184605F01FF800BF5E
:102920001837BD4680BD80B485B000AF78607B6845
:10293000FB60FB68002B0ED0FB681B79022B03D1D8
:10294000FB6800221A7106E0FB681B79012B02D19B
:10295000FB6800221A7100BF1437BD465DF8047B86
:10296000704780B400AFFEE780B483B000AF7860FA
:102970007B68013B032B0BD801A252F823F000BF68
:10298000912900009129000091290000912900005F
:1029900000BFFEE7704770470020002104460D4647
:1029A000084805F007FF05F04FFF2046294602F0D2
:1029B00033FE0548002102F063FF02F0BDFE05F082
:1029C00005FF0000ED8700009CB2000080B584B0D8
:1029D00000AFF860B9601346FB71BB681F2B05D9C7
:1029E0000D4B0E4AFF210E4805F0C6FEFB68BA6883
:1029F00053F8223023F0807323F4E063FA79120253
:102A000002F4E06243EA0201FB68BA6843F822106C
:102A100000BF1037BD4680BDF8B10000C4B2000051
:102A200004B2000080B483B000AF78600B46FB7046
:102A30007B68FA781A7000BF0C37BD465DF8047BDE
:102A40007047000080B584B000AF3B4600221A609A
:102A50005A609A60DA60064B3B6002237B723B4609
:102A60001946002004F02CFB00BF1037BD4680BD86
:102A700080F0FA0280B584B000AF074A3B1D07CA58
:102A800083E807003B1D1946002004F067FB00BFE8
:102A90001037BD4680BD00BF3CB2000080B500AF1E
:102AA0002A210848FFF7BEFF002212210648FFF73F
:102AB0008DFFFFF7C7FFFFF7DDFF044804F0A2FB1F
:102AC00000BF80BD00E0074000900440ACB20000B1
:102AD00080B582B000AF7860034800F0A0FA00BF74
:102AE0000837BD4680BD00BF983D002098B500AFB7
:102AF000094B0A4A1A600A4B0A4A1C1D13460FCB9F
:102B000084E80F0000F0E1FA0246054B1A60064B1C
:102B1000034A1A6000BF98BD983D0020A03D0020E8
:102B2000783D00209CB20000903D002080B586B02A
:102B300002AF87ED010A38600223FB60FFF7D6FF82
:102B4000164800F05CFA0346BB60154800F057FADF
:102B50000346BB60002300930023FA681149124822
:102B600000F08AFA0346BB600023104A0121104896
:102B700000F0C3FA0346BB60D7ED017A9FED0D7AF2
:102B800067EE877AFCEEE77A17EE901A084800F0B5
:102B9000DBFA00BF1037BD4680BD00BF983D002066
:102BA000903D0020B92B0000A03D0020D12A00005C
:102BB000543D002000007A4480B586B000AF7861B3
:102BC000184B1B681B68002B0CBF01230023DBB2D2
:102BD0001A46154B1A7011E03B461449184600F08E
:102BE00031FA00F0F1FF0F4B1B681B68002B14BF7C
:102BF00001230023DBB21A460D4B1A700A4B1B78D7
:102C0000DBB2002BE8D1084B00221A70786900F083
:102C100011F8002000F060FA002318461837BD466E
:102C200080BD00BFD8B2000000000020983D002009
:102C30008C3D002080B582B000AF7860074B012248
:102C40001A60074B00221A7002F02CF9054800F0B8
:102C5000E6F9002318460837BD4680BDB43D002084
:102C600000000020903D002080B586B000AF786164
:102C7000396102F0E3FA00F0BCF80A4B1B6800224D
:102C80001A6001F0E9FE00209FED070AFFF74EFFF2
:102C90003B460649184600F0D5F900231846183778
:102CA000BD4680BDD8B200006F12833A903D00202F
:102CB00080B500AF002004F061FB00BF80BD80B58F
:102CC00000AF012004F05AFB00BF80BD80B500AF0B
:102CD000022004F053FB00BF80BD80B500AF03208D
:102CE00004F04CFB00BF80BD80B500AF042004F0B1
:102CF00045FB00BF80BD80B500AF052004F03EFB62
:102D000000BF80BD80B500AF062004F037FB00BFD8
:102D100080BD80B500AF072004F030FB00BF80BD50
:102D200080B500AF082004F029FB00BF80BD80B54E
:102D300000AF092004F022FB00BF80BD80B500AFCA
:102D40000A2004F01BFB00BF80BD80B500AF0B2044
:102D500004F014FB00BF80BD80B500AF0C2004F070
:102D60000DFB00BF80BD80B500AF0D2004F006FB59
:102D700000BF80BD80B500AF0E2004F0FFFA00BF99
:102D800080BD80B500AF0F2004F0F8FA00BF80BD11
:102D900080B500AF002004F009FB00BF80BD80B506
:102DA00000AF002005F092F900BF80BD80B500AFF4
:102DB000012005F08BF900BF80BD80B500AF022077
:102DC00005F084F900BF80BD80B500AF032005F099
:102DD0007DF900BF80BD80B500AF042005F076F915
:102DE00000BF80BD80B500AF052005F06FF900BFC2
:102DF00080BD80B582B000AF04F0A0F80023FB7165
:102E000006E0FB79184604F077FAFB790133FB7191
:102E1000FB79042BF5D9FFF741FE00BF0837BD460B
:102E200080BD80B400AFFEE780B400AFFEE780B4A1
:102E300000AFFEE780B400AFFEE780B400AFFEE76E
:102E400080B400AFFEE780B400AFFEE780B400AF0F
:102E5000FEE780B400AFFEE780B400AFFEE780B4C9
:102E600000AFFEE780B400AFFEE780B400AFFEE73E
:102E700080B400AFFEE780B400AFFEE780B400AFDF
:102E8000FEE780B400AFFEE780B400AFFEE780B499
:102E900000AFFEE780B400AFFEE780B400AFFEE70E
:102EA00080B400AFFEE780B400AFFEE780B400AFAF
:102EB000FEE780B400AFFEE780B400AFFEE780B469
:102EC00000AFFEE780B400AFFEE780B400AFFEE7DE
:102ED00080B400AFFEE780B400AFFEE780B400AF7F
:102EE000FEE780B400AFFEE780B400AFFEE780B439
:102EF00000AFFEE780B400AFFEE780B400AFFEE7AE
:102F000080B400AFFEE780B400AFFEE780B400AF4E
:102F1000FEE780B400AFFEE780B400AFFEE780B408
:102F200000AFFEE780B400AFFEE780B400AFFEE77D
:102F300080B400AFFEE780B400AFFEE780B400AF1E
:102F4000FEE780B400AFFEE780B400AFFEE780B4D8
:102F500000AFFEE780B400AFFEE780B400AFFEE74D
:102F600080B400AFFEE780B400AFFEE780B400AFEE
:102F7000FEE780B400AFFEE780B400AFFEE780B4A8
:102F800000AFFEE780B400AFFEE784B080B582B04A
:102F900000AF07F1100C8CE80F003B69796A184606
:102FA00002F0C0FE03467B607B6818460837BD46CA
:102FB000BDE8804004B0704784B080B500AF07F131
:102FC000080C8CE80F00BB68F969184602F0CAFECD
:102FD00003461846BD46BDE8804004B0704780B542
:102FE00082B000AF786039607B684FF0FF3239689B
:102FF000184602F0C5FE78680837BD4680BD80B42B
:1030000085B000AF78607B6801225A600123FB60C5
:10301000FB6818461437BD465DF8047B704780B5E1
:1030200084B002AF78607B681B687A68526801924E
:103030001A6900920FCBFFF7A8FF0346184608371E
:10304000BD4680BD80B584B002AF786039603B6812
:103050001B683A68526801921A6900920FCBFFF719
:10306000ABFF3B685A687B6811461846FFF7B7FF0D
:1030700078680837BD4680BD80B586B000AFF8607F
:10308000B9607A603B60FB68BA685A60FB687A682E
:103090009A60FB680122DA603A68FB681A61FB6893
:1030A0000433396A184602F0EBFB0246FB681A60EB
:1030B000FB681B68002B14BF01230023DBB27B617C
:1030C0007B6918461837BD4680BD80B500AF02F059
:1030D00025FC0346184680BD80B584B000AF7860FB
:1030E00002F01CFC0346FB60F86802F023FC034678
:1030F000BB6000BF1037BD4680BD80B586B000AF55
:10310000F8607A603B600B46FB72FB6803F10C02CF
:10311000FB689A60FB687A685A60FB680433F97A46
:103120003A68184602F0FAFC0246FB681A60FB682F
:103130001B68002B14BF01230023DBB27B617B697A
:1031400018461837BD4680BD80B584B000AF7860A2
:1031500039607B681B683968184602F011FD034628
:10316000FB60FB6818461037BD4680BD90B482B046
:1031700000AF78603960264A4FF00003254CC2E961
:1031800016343B68D3E90034214AC2E90634204AA8
:103190004FF000031F4CC2E900341D4A4FF00003FA
:1031A0001C4CC2E910341A4A4FF000034FF00004DF
:1031B000C2E90E34164A4FF000034FF00004C2E992
:1031C0000434134A4FF000034FF00004C2E90A34FC
:1031D0000F4A4FF000034FF00004C2E90C340C4AD0
:1031E0004FF000034FF00004C2E91234084A4FF0D8
:1031F0000003084CC2E914347B68D3E90034044A64
:10320000C2E9023400BF0837BD4690BC704700BF1A
:10321000B83D00200000F03F90B585B000AF87EDCD
:10322000000B97ED000B05F00BFA51EC100B4FF073
:103230000002334BFDF762FE0346002B50D04FF0E7
:103240000002304BD7E90001FDF76CFE0346002B6E
:1032500017D04FF000022B4BD7E90001FDF726FAFB
:1032600003460C4644EC173BB0EE470AF0EE670A03
:1032700005F0F2F9B0EE407AF0EE607A87ED027B6D
:1032800032E04FF00002204BD7E90001FDF754FE79
:103290000346002B0CD04FF000024FF00003D7E99B
:1032A0000001FDF7B9FB03460C46C7E902341BE0F9
:1032B0004FF00002134BD7E90001FDF7F5F9034683
:1032C0000C4644EC173BB0EE470AF0EE670A05F0F7
:1032D0002FF9B0EE407AF0EE607A87ED027B03E0E2
:1032E000D7E90034C7E90234D7E9023444EC173B8C
:1032F000B0EE470AF0EE670A1437BD4690BD00BF36
:10330000000030430000E03F0000E0BF90B482B016
:1033100000AF78603960264A4FF00003254CC2E9BF
:1033200016343B68D3E90034214AC2E90634204A06
:103330004FF000031F4CC2E900341D4A4FF0000358
:103340001C4CC2E910341A4A4FF000034FF000043D
:10335000C2E90E34164A4FF000034FF00004C2E9F0
:103360000434134A4FF000034FF00004C2E90A345A
:103370000F4A4FF000034FF00004C2E90C340C4A2E
:103380004FF000030B4CC2E91234094A4FF000031E
:103390004FF00004C2E914347B68D3E90034044AD6
:1033A000C2E9083400BF0837BD4690BC704700BF73
:1033B000B83D00200000F03FB0B588B000AFF86025
:1033C000B9607A603B60924B93F98730022B08D04A
:1033D000904B002283F839218E4B032283F835214C
:1033E000B9E28C4B93F83931012B03D0022B00F05A
:1033F000178159E2884A4FF00003884CC2E916341D
:10340000854A4FF00003854CC2E90034824A4FF0F0
:103410000003824CC2E910347F4A4FF000034FF0A2
:103420000004C2E904347C4A4FF000034FF000046A
:10343000C2E90A34784A4FF00003784CC2E91234EA
:10344000754A4FF000034FF00004C2E91434714B89
:10345000D3F830516E4BD3E904341A4623466AA19F
:10346000D1E90001FDF702FC03460C46184621464F
:10347000FB68D3E900341A462346FDF715F90346E5
:103480000C4644EC173BB0EE470AF0EE670A05F035
:103490004FF854EC103B18462146FDF77FFD0346DC
:1034A0009D4245D35B4B032283F83921594B0022BF
:1034B000C3F83021584A4FF000034FF00004C2E92E
:1034C0001634554A4FF000034FF00004C2E90034AF
:1034D000514A4FF00003514CC2E910344E4A4FF0AC
:1034E00000034E4CC2E90C344B4A4FF000034FF03E
:1034F0000004C2E91234484A4FF000034FF00004C0
:10350000C2E90434444A4FF000034FF00004C2E91A
:103510000A34414A4FF000034FF00004C2E914346A
:103520003D4A4FF000034FF00004C2E90E340DE2B3
:10353000374B93F88630002B2DD1BB681B78002BBE
:1035400029D0344BD3F83041FB6893ED007BB0EECB
:10355000470AF0EE670A04F0EBFF53EC102B10461D
:103560001946FDF71BFD03469C4214D3294BD3F8A3
:103570003031274AB2F9802093420CD3254B0122E7
:1035800083F83921234B0022C3F830213968786849
:10359000FFF7BCFEDAE11E4B93F88630002B00F0FB
:1035A000D581BB681B78002B00F0D081194BD3F874
:1035B0003041FB6893ED007BB0EE470AF0EE670AFE
:1035C00004F0B6FF53EC102B10461946FDF7E6FC4D
:1035D00003469C42C0F0BA810E4BD3F830310C4AFE
:1035E000B2F980209342C0F0B1810A4B022283F8E5
:1035F0003921084B0022C3F8302139687868FFF779
:1036000085FEA3E1AFF3008000000000004CED4018
:1036100040040020183E0020B83D00200000F03F8C
:103620009B4A4FF000039B4CC2E91634984A4FF076
:103630000003984CC2E90034954A4FF00003954CC2
:10364000C2E91034924A4FF000034FF00004C2E97F
:1036500004348F4A4FF000034FF00004C2E90A34EB
:103660008B4A4FF000038B4CC2E91234884A4FF06A
:1036700000034FF00004C2E91434BB681B78002B30
:1036800029D0854BD3F83041FB6893ED007BB0EE39
:10369000470AF0EE670A04F04BFF53EC102B10467C
:1036A0001946FDF77BFC03469C4214D37A4BD3F8B2
:1036B00030317A4AB2F9802093420CD3764B022201
:1036C00083F83921744B0022C3F8302139687868B7
:1036D000FFF71CFE3CE1714BD3E904341A46234644
:1036E00069A1D1E90001FDF7C1FA03460C46254660
:1036F0001C466A4BB3F984301846FDF723F902469D
:103700000B4620462946FCF7D1FF03460C4644EC05
:10371000173BB0EE470AF0EE670AFFF77DFDB0EE0B
:10372000407AF0EE607A87ED047B4FF000025C4B4C
:10373000D7E90401FDF7E2FB0346002B14D04FF05C
:103740000002584BD7E90401FDF7ECFB0346002BC0
:1037500006D0D7E90401FDF7F9FB0346FB8306E039
:103760004FF40043FB8302E047F6FF73FB83B7F996
:103770001E301846FDF7E6F8FB68D3E900341A4618
:103780002346FCF791FF03460C4644EC173BB0EE92
:10379000470AF0EE670AFFF73FFDB0EE407AF0EE21
:1037A000607A87ED047B4FF000023D4BD7E90401BE
:1037B000FDF7A4FB0346002B14D04FF00002394B59
:1037C000D7E90401FDF7AEFB0346002B06D0D7E98D
:1037D0000401FDF7BBFB0346FB8306E04FF4004307
:1037E000FB8302E047F6FF73FB832B4BD3F83021BA
:1037F000B7F91E309A42C0F0AB80274B032283F802
:103800003921254B0022C3F83021214A4FF0000313
:103810004FF00004C2E916341D4A4FF000034FF088
:103820000004C2E900341A4A4FF00003194CC2E9FF
:103830001034174A4FF00003164CC2E90C34144AF6
:103840004FF000034FF00004C2E91234104A4FF069
:1038500000034FF00004C2E904340D4A4FF00003A6
:103860004FF00004C2E90A34094A4FF000034FF058
:103870000004C2E91434064A4FF000034FF000047C
:10388000C2E90E3464E000BF00000000004CED40CF
:10389000B83D00200000F03F183E0020400400200A
:1038A0000000E0400000E0C02D4A4FF000034FF060
:1038B0000004C2E916342A4A4FF000034FF0000416
:1038C000C2E90034264A4FF00003264CC2E9103406
:1038D000234A4FF000034FF00004C2E91234204A9B
:1038E0004FF000034FF00004C2E904341C4A4FF0CB
:1038F00000034FF00004C2E90A34194A4FF00003F4
:103900004FF00004C2E91434174BD3F83041FB6880
:1039100093ED007BB0EE470AF0EE670A04F008FE74
:1039200053EC102B10461946FDF738FB03469C421A
:1039300010D30D4B012283F839210B4B0022C3F821
:10394000302139687868FFF7E1FC03E000BF02E04E
:1039500000BF00E000BF00BF2037BD46B0BD00BFC4
:10396000B83D00200000F03F183E002090B482B027
:1039700000AF78607B68D3E900341E4AC2E90634A0
:103980001C4A4FF000031C4CC2E90034194A4FF0A6
:103990000003194CC2E91034164A4FF000034FF0EF
:1039A0000004C2E90E34134A4FF000034FF0000444
:1039B000C2E904340F4A4FF000034FF00004C2E99B
:1039C0000A340C4A4FF000034FF00004C2E90C34F3
:1039D000084A4FF00003084CC2E91234054A4FF080
:1039E00000034FF00004C2E9143400BF0837BD469D
:1039F00090BC7047B83D00200000F03F90B482B00A
:103A000000AF78607B68D3E900341E4AC2E906340F
:103A10001C4A4FF000031C4CC2E90034194A4FF015
:103A20000003194CC2E91034164A4FF000034FF05E
:103A30000004C2E90E34134A4FF000034FF00004B3
:103A4000C2E904340F4A4FF000034FF00004C2E90A
:103A50000A340C4A4FF000034FF00004C2E90C3462
:103A6000084A4FF000034FF00004C2E91234054A3F
:103A70004FF00003044CC2E9143400BF0837BD46C0
:103A800090BC7047B83D00200000F03F80B582B088
:103A900000AF78607B685B68012B08D17B681B7A7C
:103AA000002B04D07B681B691846FEF73CFF00BF63
:103AB0000837BD4680BD80B582B000AF78607868B9
:103AC000FFF7E4FF00BF0837BD4680BD80B582B078
:103AD00000AF78607B681B78002B05D17B680122E2
:103AE0001A707868FFF7E7FF00BF0837BD4680BD52
:103AF00080B582B000AF78607B685B68012B08D12D
:103B00007B681B7A002B04D07B681B691846FEF784
:103B10000AFF00BF0837BD4680BD80B582B000AF48
:103B200078607868FFF7E4FF00BF0837BD4680BDC6
:103B300080B582B000AF78607B681B78002B05D120
:103B40007B6801221A707868FFF7E7FF00BF08372B
:103B5000BD4680BD80B582B000AF78607B685B6891
:103B6000012B0DD17B681B7A002B09D07B681B6968
:103B70001846FEF7D1FD7B681B691846FEF7E2FD8B
:103B800000BF0837BD4680BD80B582B000AF786009
:103B90007868FFF7DFFF00BF0837BD4680BD80B5FE
:103BA00082B000AF78607B681B78002B05D17B6802
:103BB00001221A707868FFF7E7FF00BF0837BD469B
:103BC00080BD000000000000B0B590B000AF694BB0
:103BD000D3E90601684BD3E902341A462346FDF7C0
:103BE00083F90346002B05D1634BD3E90234614AC4
:103BF000C2E906345F4B1B691846FEF71DFE0346FB
:103C000087F827305B4BD3E90E015B4BD3E90034D7
:103C10001A462346FDF768F90346002B05D1564B9B
:103C2000D3E90034534AC2E90E34524B1B6B184699
:103C3000FEF702FE034687F83D304F4BD3E90A01F9
:103C40004D4BD3E908341A462346FCF7E5FE0346FC
:103C50000C46C7E90034484BD3E90E01464BD3E983
:103C60000C341A462346FCF7D7FE03460C46C7E938
:103C70000234414BD3E912013F4BD3E910341A46C9
:103C80002346FCF7C9FE03460C46C7E90A343A4B03
:103C9000D3E91601384BD3E914341A462346FCF70E
:103CA000BBFE03460C46C7E90C34334BD3E91A017B
:103CB000314BD3E918341A462346FCF7ADFE0346D0
:103CC0000C46C7E904342C4BD3E91E012A4BD3E937
:103CD0001C341A462346FCF79FFE03460C46C7E9F0
:103CE0000634244BD3F83031B3F1FF3F06D0214BDB
:103CF000D3F8303101331F4AC2F830311D4B93F8ED
:103D00003431002B09D11B4B012283F83421194B8C
:103D1000032283F8352100F098BD164B93F8353116
:103D2000013B032B00F2BA8201A252F823F000BF3C
:103D3000413D0000573D00009B3F00005740000000
:103D40003B4607F1100207F1270107F12800FFF7B2
:103D500033FB00F07ABD084B93F98730002B0DD070
:103D6000044B002283F83621024B032283F83521CD
:103D700000F056BD183E002040040020C04B93F8D0
:103D80003631012B40F0BD80BE4A4FF00003BE4CDF
:103D9000C2E90034BB4A4FF00003BB4CC2E9103407
:103DA000B84A4FF000034FF00004C2E90434B54AAA
:103DB0004FF000034FF00004C2E90A34B14A4FF05B
:103DC0000003B14CC2E91234AE4A4FF000034FF089
:103DD0000004C2E91434AA4BD3F83051AB4BD3E9F9
:103DE00004341A462346A4A1D1E90001FCF73EFFA2
:103DF00003460C4618462146D7E90A341A4623469C
:103E0000FCF752FC03460C4644EC173BB0EE470A65
:103E1000F0EE670A04F08CFB54EC103B1846214688
:103E2000FDF7BCF803469D42C0F0FA84944BD3F8EA
:103E30003051964BD3E906341A4623468EA1D1E978
:103E40000001FCF713FF03460C4618462146D7E94C
:103E50000A341A462346FCF727FC03460C4644EC7A
:103E6000173BB0EE470AF0EE670A04F061FB54EC32
:103E7000103B18462146FDF791F803469D42C0F0DD
:103E8000CF847F4B022283F836217D4B0022C3F87A
:103E900030217C4A4FF000034FF00004C2E90034A7
:103EA000784A4FF00003784CC2E91034754A4FF05D
:103EB0000003754CC2E90C34724A4FF000034FF016
:103EC0000004C2E912346F4A4FF000034FF00004BF
:103ED000C2E904346B4A4FF000034FF00004C2E91A
:103EE0000A34684A4FF000034FF00004C2E914346A
:103EF000644A4FF000034FF00004C2E90E3400F0B2
:103F00008FBC604A4FF000034FF00004C2E9003458
:103F10005C4A4FF000035C4CC2E91034594A4FF040
:103F200000034FF00004C2E91234564A4FF0000378
:103F30004FF00004C2E90434524A4FF000034FF03E
:103F40000004C2E90A344F4A4FF000034FF0000466
:103F5000C2E914344A4BD3F8304197ED0A7BB0EEF6
:103F6000470AF0EE670A04F0E3FA53EC102B104610
:103F70001946FDF713F803469C42C0F05184404BAC
:103F8000012283F836213E4B0022C3F830213B4604
:103F90001846FFF7EBFC00F043BC3C4B93F987302D
:103FA000032B00F23F8401A252F823F0BD3F000032
:103FB000DF3F0000034000002B400000304B022296
:103FC00083F835212E4B012283F836212C4B002219
:103FD000C3F830213B461846FFF7C8FC3AE0284BAF
:103FE000042283F83521264B012283F83821244B03
:103FF0000022C3F8302107F108031846FFF7FEFC42
:1040000028E01F4B012283F835211D4B012283F844
:1040100039211B4B0022C3F830213A4607F1100327
:1040200011461846FFF772F914E0154B052283F884
:104030003521134B012283F83721114B0022C3F89D
:10404000302107F1080207F1180311461846FFF75F
:104050008DF800BFE6E30D4B93F98730012B17D0A5
:10406000074B002283F83821054B032283F83521C2
:10407000EAE300BFAFF3008000000000004CED4019
:10408000183E0020B83D00200000F03F4004002012
:10409000914B93F83831012B40F0B8808F4A4FF0A4
:1040A00000038F4CC2E900348C4A4FF000038C4C63
:1040B000C2E91034894A4FF000034FF00004C2E90E
:1040C0000434864A4FF000034FF00004C2E90A347A
:1040D000824A4FF000034FF00004C2E912347F4AD5
:1040E0004FF000037E4CC2E914347B4BD3F83051BF
:1040F0007C4BD3E904341A46234675A1D1E900016B
:10410000FCF7B4FD03460C4618462146D7E90C23BC
:10411000FCF7CAFA03460C4644EC173BB0EE470ADC
:10412000F0EE670A04F004FA54EC103B18462146FE
:10413000FCF734FF03469D42C0F08683664BD3F8FC
:104140003051684BD3E906341A46234660A1D1E9C1
:104150000001FCF78BFD03460C4618462146D7E9C3
:104160000C23FCF7A1FA03460C4644EC173BB0EED7
:10417000470AF0EE670A04F0DBF954EC103B1846EE
:104180002146FCF70BFF03469D42C0F05D83524B76
:10419000022283F83821504B0022C3F830214F4AC5
:1041A0004FF000034FF00004C2E900344B4A4FF0D7
:1041B00000034B4CC2E91034484A4FF000034FF063
:1041C0000004C2E90C34454A4FF000034FF00004EC
:1041D000C2E91234414A4FF000034FF00004C2E933
:1041E00004343E4A4FF000034FF00004C2E90A34A1
:1041F0003A4A4FF000034FF00004C2E91434374A42
:104200004FF00003364CC2E90E341DE3334A4FF041
:1042100000034FF00004C2E90034304A4FF00003BD
:104220002F4CC2E910342D4A4FF000034FF0000428
:10423000C2E91234294A4FF000034FF00004C2E9EA
:104240000434264A4FF000034FF00004C2E90A3458
:10425000224A4FF000034FF00004C2E914341E4B11
:10426000D3F8304197ED0C0B04F062F953EC102BAE
:1042700010461946FCF792FE03469C42C0F0E482C9
:10428000154B012283F83821134B0022C3F830214B
:1042900007F108031846FFF7B1FBD5E2114B93F97C
:1042A0008730032B08D00C4B002283F837210A4BB0
:1042B000032283F83521C8E2074B93F83731012BED
:1042C00012D0022B00F0138153E200BFAFF3008045
:1042D00000000000004CED40183E0020B83D0020DA
:1042E0000000F03F40040020B14A4FF00003B14C01
:1042F000C2E91634AE4A4FF00003AE4CC2E90034B6
:10430000AB4A4FF00003AB4CC2E91034A84A4FF05F
:1043100000034FF00004C2E90434A54A4FF0000343
:104320004FF00004C2E90A34A14A4FF000034FF0F5
:104330000004C2E912349E4A4FF000039D4CC2E9CA
:1043400014349D4B93F88630002B2CD097F83D30D9
:10435000002B28D0994BD3F8304197ED0C0B04F08B
:10436000E7F853EC102B10461946FCF717FE0346EE
:104370009C4218D3914BD3F830318F4AB2F9822046
:10438000934210D38D4B022283F837218B4B0022AE
:10439000C3F8302107F1080207F118031146184647
:1043A000FEF7E4FE36E2854BD3F83051824BD3E979
:1043B00004341A4623467CA1D1E90001FCF756FCDF
:1043C00003460C4618462146D7E90C23FCF76CF946
:1043D00003460C4644EC173BB0EE470AF0EE670A82
:1043E00004F0A6F854EC103B18462146FCF7D6FD25
:1043F00003469D4245D3714B032283F837216F4B0F
:104400000022C3F830216A4A4FF000034FF0000445
:10441000C2E91634664A4FF000034FF00004C2E9C7
:104420000034634A4FF00003624CC2E91034604A22
:104430004FF000034FF00004C2E90C345C4A4FF027
:1044400000034FF00004C2E91234594A4FF0000350
:104450004FF00004C2E90434554A4FF000034FF016
:104460000004C2E90A34524A4FF000034FF000043E
:10447000C2E914344E4A4FF000034E4CC2E90E34E8
:10448000C8E14D4B93F88630002B40F0C38197F87C
:104490003D30002B00F0BE81484BD3F8304197ED02
:1044A0000C0B04F045F853EC102B10461946FCF7A2
:1044B00075FD03469C42C0F0AD81404BD3F83031CE
:1044C0003D4AB2F982209342C0F0A4813B4B0122C5
:1044D00083F83721394B0022C3F8302107F1080255
:1044E00007F1180311461846FEF740FE92E1304AE4
:1044F0004FF000032F4CC2E916342D4A4FF0000351
:104500002C4CC2E900342A4A4FF00003294CC2E97E
:104510001034274A4FF000034FF00004C2E904347E
:10452000234A4FF000034FF00004C2E90A34204A46
:104530004FF000034FF00004C2E912341C4A4FF060
:1045400000031C4CC2E9143497F83D30002B37D0DF
:104550001A4BD3F8304197ED0C0B03F0E9FF53EC05
:10456000102B10461946FCF719FD03469C4227D331
:10457000124BD3F83031104AB2F9822093421FD344
:104580000E4B022283F837210C4B0022C3F8302156
:1045900007F1080207F1180311461846FEF7E6FD79
:1045A0003AE100BFAFF3008000000000004CED4096
:1045B000B83D00200000F03F40040020183E0020DD
:1045C0009B4BD3E904341A46234697A1D1E9000155
:1045D000FCF74CFB03460C4625461C46944BB3F9AE
:1045E00084301846FCF7AEF902460B4620462946B1
:1045F000FCF75CF803460C4644EC173BB0EE470A68
:10460000F0EE670AFEF708FEB0EE407AF0EE607A50
:1046100087ED007BD7E900014FF00002854BFCF7E6
:104620006DFC0346002B16D0D7E900014FF00002C5
:10463000814BFCF777FC0346002B08D0D7E9003408
:1046400018462146FCF782FC0346FB8706E04FF440
:104650000043FB8702E047F6FF73FB87B7F93E3064
:104660001846FCF76FF9D7E90C23FCF71DF8034651
:104670000C4644EC173BB0EE470AF0EE670AFEF733
:10468000CBFDB0EE407AF0EE607A87ED007BD7E9A3
:1046900000014FF00002674BFCF730FC0346002B93
:1046A00016D0D7E900014FF00002634BFCF73AFC4B
:1046B0000346002B08D0D7E9003418462146FCF702
:1046C00045FC0346FB8706E04FF40043FB8702E00E
:1046D00047F6FF73FB87594BD3F83021B7F93E30CB
:1046E0009A42C0F09980554B032283F83721534BEF
:1046F0000022C3F83021524A4FF000034FF000046B
:10470000C2E916344E4A4FF000034FF00004C2E9EC
:1047100000344B4A4FF000034A4CC2E91034484A77
:104720004FF000034FF00004C2E90C34444A4FF04C
:1047300000034FF00004C2E91234414A4FF0000375
:104740004FF00004C2E904343D4A4FF000034FF03B
:104750000004C2E90A343A4A4FF000034FF0000463
:10476000C2E91434364A4FF00003364CC2E90E3425
:1047700052E0334A4FF000034FF00004C2E9163410
:104780002F4A4FF000034FF00004C2E900342C4AD6
:104790004FF000032B4CC2E91034294A4FF00003BC
:1047A0004FF00004C2E91234254A4FF000034FF0E5
:1047B0000004C2E90434224A4FF000034FF0000421
:1047C000C2E90A341E4A4FF000034FF00004C2E968
:1047D00014341A4BD3F8304197ED0C0B03F0A8FEBC
:1047E00053EC102B10461946FCF7D8FB03469C42AD
:1047F00014D3124B012283F83721104B0022C3F847
:10480000302107F1080207F1180311461846FEF798
:10481000ADFC03E000BF18E000BF16E000BF14E0ED
:1048200000BF12E000BF10E000000000004CED40AF
:10483000400400200000E0400000E0C0183E0020DE
:10484000B83D00200000F03F00BF804B1C6D804B46
:10485000D3E9000101231D464FF000024FF0000391
:10486000FCF742FB0346002B01D000231D46EBB2B0
:1048700019462046FEF718F8744BD3F80421744B00
:1048800093ED027BB0EE470AF0EE670A1046FDF7A3
:1048900005FF6E4B5C6E6E4BD3E9040101231D4690
:1048A0004FF000024FF00003FCF71EFB0346002B05
:1048B00001D000231D46EBB219462046FDF7F4FF58
:1048C000624BD3F81821624B93ED067BB0EE470A9A
:1048D000F0EE670A1046FDF7E1FE5C4BD3F82C21A1
:1048E0005B4B93ED087BB0EE470AF0EE670A10468B
:1048F000FDF7D4FE554B9C6F554BD3E90A010123BC
:104900001D464FF000024FF00003FCF7EDFA03469E
:10491000002B01D000231D46EBB219462046FDF7BF
:10492000C3FF4A4BD3F88C40494BD3E90C01012318
:104930001D464FF000024FF00003FCF7D5FA034686
:10494000002B01D000231D46EBB219462046FDF78F
:10495000ABFF3E4BD3F8A0403D4BD3E90E01012302
:104960001D464FF000024FF00003FCF7BDFA03466E
:10497000002B01D000231D46EBB219462046FDF75F
:1049800093FF324BD3F8B440314BD3E910010123EC
:104990001D464FF000024FF00003FCF7A5FA034656
:1049A000002B01D000231D46EBB219462046FDF72F
:1049B0007BFF264BD3F8C840254BD3E912010123D6
:1049C0001D464FF000024FF00003FCF78DFA03463E
:1049D000002B01D000231D46EBB219462046FDF7FF
:1049E00063FF1A4BD3F8DC40194BD3E914010123C0
:1049F0001D464FF000024FF00003FCF775FA034626
:104A0000002B01D000231D46EBB219462046FDF7CE
:104A10004BFF0E4BD3F8F0400D4BD3E916010123A9
:104A20001D464FF000024FF00003FCF75DFA03460D
:104A3000002B01D000231D46EBB219462046FDF79E
:104A400033FF00BF4037BD46B0BD00BF183E002059
:104A5000B83D00200000000090B585B000AFBA4B13
:104A600001221A70B84B00225A60B74A4FF0000377
:104A7000B64CC2E90634B44B00221A70B44BD3E9E9
:104A80000234B14AC2E90634AF4BFB60AE4B0022A0
:104A90001A72AD4B01225A6000210020FDF75CFE26
:104AA0000246FB681A61A84B01221A72A64B01222A
:104AB00083F82020A44B00225A62A34A4FF000033F
:104AC000A24CC2E90E34A04B002283F82020A04B58
:104AD000D3E900349C4AC2E90E349E4BFB609A4BEA
:104AE000002283F82820984B01225A6200210120DD
:104AF000FDF732FE0246FB681A61934B012283F8F0
:104B00002820914B012283F840208F4B00225A64C9
:104B10008D4B002283F840208F4BBB608A4B0022D4
:104B200083F84820884B01225A6401210220FDF7B6
:104B300013FE0246BB681A61834B012283F84820AA
:104B4000814B012283F8F4207F4B0022C3F8F82028
:104B50007D4B002283F8F420804B7B607A4B00224F
:104B600083F8FC20784B0122C3F8F8209FED721BDC
:104B70009FED730B0320FDF7D5FC02467B681A619D
:104B8000714BD3F804311846FDF77EFD6E4B0122C0
:104B900083F8FC206C4B012283F854206A4B0022DE
:104BA0009A65694B002283F854206D4BBB60664BBD
:104BB000002283F85C20644B01229A6501210420C5
:104BC000FDF7CAFD0246BB681A615F4B012283F8FC
:104BD0005C205D4B012283F808215B4B0022C3F867
:104BE0000C21594B002283F808215E4B7B60564B09
:104BF000002283F81021544B0122C3F80C219FEDB1
:104C00004E1B9FED4F0B0520FDF78CFC02467B6889
:104C10001A614D4BD3F818311846FDF735FD4A4B54
:104C2000012283F81021484B012283F81C21464BB6
:104C30000022C3F82021444B002283F81C214A4B58
:104C40007B60414B002283F824213F4B0122C3F8B3
:104C500020219FED391B9FED3A0B0620FDF762FCEA
:104C600002467B681A61384BD3F82C311846FDF7A1
:104C70000BFD354B012283F82421334B012283F8AD
:104C80006820314B0022DA662F4B002283F868201F
:104C9000364BBB602C4B002283F870202A4B01223C
:104CA000DA6601210720FDF757FD0246BB681A614D
:104CB000254B012283F87020234B012283F87C20AE
:104CC000214B0022C3F880201F4B002283F87C2058
:104CD000274BBB601C4B002283F884201A4B012217
:104CE000C3F8802001210820FDF736FD0246BB688D
:104CF0001A61154B012283F88420134B012283F89B
:104D00009020114B0022C3F894200F4B002283F80F
:104D10009020184BBB600C4B002283F898200A4B64
:104D20000122C3F8942001210920FDF715FD024658
:104D3000BB681A6120E000BF000000000000000016
:104D40000000000000409F40183E00200000F0BF1F
:104D500040040020383E0020583E00200C3F002038
:104D60006C3E0020203F0020343F0020803E002089
:104D7000943E0020A83E0020454B012283F8982055
:104D8000434B012283F8A420414B0022C3F8A82002
:104D90003F4B002283F8A4203E4BBB603C4B0022DB
:104DA00083F8AC203A4B0122C3F8A82001210A2045
:104DB000FDF7D2FC0246BB681A61354B012283F82D
:104DC000AC20334B012283F8B820314B0022C3F8CA
:104DD000BC202F4B002283F8B8202F4BBB602C4BFC
:104DE000002283F8C0202A4B0122C3F8BC200121F5
:104DF0000B20FDF7B1FC0246BB681A61244B01226F
:104E000083F8C020224B012283F8CC20204B0022C3
:104E1000C3F8D0201E4B002283F8CC201F4BBB6070
:104E20001B4B002283F8D420194B0122C3F8D02059
:104E300001210C20FDF790FC0246BB681A61144B5F
:104E4000012283F8D420124B012283F8E020104B7A
:104E50000022C3F8E4200E4B002283F8E020104B20
:104E6000BB600B4B002283F8E820094B0122C3F8FA
:104E7000E42001210D20FDF76FFC0246BB681A619A
:104E8000034B012283F8E82000BF1437BD4690BDD4
:104E9000183E0020BC3E0020D03E0020E43E002012
:104EA000F83E002080B500AF1548FEF70FFE15480C
:104EB000FEF70CFE1448FEF73BFE1448FEF76FFEAB
:104EC0001348FEF735FE1348FEF769FE1248FEF759
:104ED00066FE1248FEF72CFE1148FEF729FE114827
:104EE000FEF726FE1048FEF723FE1048FEF720FED0
:104EF0000F48FEF71DFE0F48FEF71AFE00BF80BDEB
:104F0000183E0020383E0020583E00200C3F002074
:104F10006C3E0020203F0020343F0020803E0020D7
:104F2000943E0020A83E0020BC3E0020D03E002041
:104F3000E43E0020F83E002080B584B000AF7860E9
:104F4000114B1B68002B02D10F4B104A1A600E4BFD
:104F50001B68FB600C4B1A687B6813440C4A934235
:104F600007D903F02DFC02460C2313604FF0FF33EA
:104F700006E0054B1A687B681344034A1360FB681C
:104F800018461037BD4680BD5C3F00200000FF1F63
:104F90000000002080B489B000AF284BFB60284A95
:104FA000284B9A4216D00023FB610AE0254AFB6990
:104FB00052F823202249FB6941F82320FB69013381
:104FC000FB61FB689B08FA699A42EFD31E4B1C4AAF
:104FD0009A6002E01C4B1B4A9A601C4BBB611C4B45
:104FE0007B611C4BBB60BA687B69D31AFB6107E02D
:104FF0007A69531C7B61BB69591CB96112781A70BC
:10500000FB695A1EFA61002BF2D1134B3B61134B23
:105010007B607A683B69D31AFB6104E03B695A1CE8
:105020003A6100221A70FB695A1EFA61002BF5D111
:1050300000BF2437BD465DF8047B704700000000C8
:10504000000000000000000000ED00E00000002073
:1050500044C20000C4D00000800E0020D4400020D4
:1050600080B400AF6B4BD3F888306A4A43F47003C6
:10507000C2F88830684B4CF22052DA81664B4DF60C
:105080002812DA81644B4FF4E9721A80634B1B7863
:10509000DBB203F00103002B0FD0614B9B78DBB236
:1050A00003F00803002B2ED05D4B9B78DBB25C4AEB
:1050B00043F00803DBB2937025E05A4B03F58153AC
:1050C0001C331B68574943F0005201F581531C33D0
:1050D0001A60554B1B6903F48073002B13D1524B9C
:1050E0001B6923F47C53504A43F4407313614E4BC5
:1050F0001B694D4A43F4807313614B4B1B694A4A49
:1051000023F400731361494B2A221A70454B03F5AF
:10511000825304334FF08A721A60424B1B6823F4A7
:105120004023404A43F4002313603E4B03F5805371
:1051300004331B6823F440333A4943F4803201F5C9
:10514000805304331A60374B03F5815318331B68BF
:10515000344943F4007201F5815318331A60344B1B
:105160009B6C334A23F0807323F4E0639364314BE8
:1051700000221A722F4B5B78DBB223F06003DBB2A4
:105180002C4A43F02003DBB253702B4B80221A7061
:10519000284B00221A73274BBA221A7000BF254BE6
:1051A0009B79DBB203F01003002BF8D1214BDB78A5
:1051B000DBB2204A03F01F03DBB2D3701D4B132276
:1051C0001A711C4B18225A711A4B5B79DBB2194ABF
:1051D00043F04003DBB2537100BF164B9B79DBB247
:1051E00003F04003002BF8D0124B1B78DBB2114ABE
:1051F00003F03F03DBB2137000BF0E4B9B79DBB2B1
:1052000003F00C030C2BF8D100BFBD465DF8047B06
:10521000704700BF00ED00E00020054000F00740AF
:1052200000D007400070044000D0034000E0074079
:1052300000900440004006400050064080B483B017
:1052400000AF964B1B78DBB203F0C003002B40F09D
:10525000D280924B5B79DBB203F04003002B40F02D
:10526000AD808E4B1B78DBB203F00403002B4ED1D4
:105270008A4B1B7BDBB203F00303002B02D0012B14
:1052800003D006E0864B7B6006E04FF400437B6072
:1052900002E0844B7B6000BF804B5B78DBB203F0A5
:1052A0003003002B23D07D4B1B7BDBB203F00303C9
:1052B000012B1CD0794B1B78DBB203F03803302B69
:1052C00005D0382B07D14FF4C0637B800EE04FF43C
:1052D000A0637B800AE0714B1B78DBB2DB0803F034
:1052E0000703202202FA03F37B8000BF09E06B4B27
:1052F0001B78DBB2DB0803F00703012202FA03F399
:105300007B807B887A68B2FBF3F37B6002E04FF42A
:1053100000437B60614BDB78DBB203F0E003602B82
:1053200029D0602B06D8202B17D0402B1CD0002B67
:105330000CD09DE0A02B2CD0A02B02D8802B21D00C
:1053400096E0C02B2CD0E02B31D091E07A68134648
:105350009B001344DB017B608AE07A6813469B0064
:1053600013441B027B6083E07A6813461B019B1A7F
:10537000DB017B607CE07A6813469B0013445B0290
:105380007B6075E07B684FF4377202FB03F37B6050
:105390006EE07B684FF4B76202FB03F37B6067E06B
:1053A0007B6840F6950202FB03F37B6060E07B685C
:1053B00040F6713202FB03F37B6059E0374B1B79F7
:1053C000DBB29BB203F01F039BB201337B807B886F
:1053D000334AB2FBF3F37B60304B5B79DBB29BB2B9
:1053E00003F01F039BB218337B807A887B6802FB33
:1053F00003F37B603CE0294B1B78DBB203F0C00376
:10540000402B1AD1254B5B78DBB203F00103002B54
:1054100003D14FF400437B602AE0204B1B7ADBB2C0
:105420005B0803F00703012202FA03F37B807B8809
:105430001D4AB2FBF3F37B601AE0184B1B78DBB21A
:1054400003F0C003802B22D1144B1B7BDBB203F093
:105450000303002B02D0012B03D006E0104B7B602E
:1054600006E04FF400437B6002E00E4B7B6000BF20
:105470000E4B03F5825304331B681B0F03F00F031D
:1054800001337A68B2FBF3F3094A136000E000BF0E
:105490000C37BD465DF8047B704700BF00400640F6
:1054A00080F0FA02006CDC0200093D00007004404C
:1054B000C804002000B5DFF80CC000DFDFF808C02A
:1054C00000DFFEE7255800003D5800002DE9F041BF
:1054D000334C237853B1334B1B68FF229A70324A06
:1054E0000020012310702370BDE8F0812F4B30485D
:1054F000196800F055FD10B18520BDE8F08101F07C
:1055000005FC284B21781B68FF229A700029E6D100
:10551000284A1368002B40D0556845B12A78002AE4
:1055200039D1191D890089B2284600F0F9FD224BB6
:10553000224A1E68156066B35D68EA1C062A28D8F0
:10554000DF68B7B139461A4800F038FD804600B32D
:10555000291D41EA072130460023424601F06CFA3A
:10556000054670B94146124800F050FD144B1D60CD
:10557000B5E7291D30463B463A4601F05DFA05463F
:1055800038B1104B104A013D53F82550AB6A5A63AD
:10559000ECE70025EAE70D46C9E71D46C7E700BF6F
:1055A0002C400020704000202D40002078B20000E8
:1055B0005831002090B2000080B200004C3D002025
:1055C000283D00201C3D0020B554000038B5104C8B
:1055D000207808B1002038BD0E4D2B6893F82410B8
:1055E00001F0AEF92B68DA78FF2A08D06A68094919
:1055F00052B101F001FC01232370002038BD9A6AEA
:10560000203282F30988F1E781E80C00F1E700BF5E
:105610002D400020704000202DE9F041EFF305847B
:1056200014B18220BDE8F081EFF31484E40704D5BF
:10563000DFF800C100DFBDE8F081334C237853B1BF
:10564000324B1B68FF229A70314A002001231070F0
:105650002370BDE8F0812F4B2F48196800F0A0FCA3
:1056600010B18520BDE8F08101F050FB274B217877
:105670001B68FF229A700029E6D1284A1368002B84
:1056800040D0556845B12A78002A39D1191D8900C2
:1056900089B2284600F044FD214B224A1E6815605D
:1056A00066B35D68EA1C062A28D8DF68B7B13946B8
:1056B000194800F083FC804600B3291D41EA072108
:1056C00030460023424601F0B7F9054670B941461D
:1056D000114800F09BFC144B1D60B5E7291D3046B6
:1056E0003B463A4601F0A8F9054638B10F4B104A3F
:1056F000013D53F82550AB6A5A63ECE70025EAE711
:105700000D46C9E71D46C7E72C4000207040002029
:105710002D40002078B200005831002090B20000E7
:1057200080B200004C3D0020283D00201C3D0020A0
:10573000B5540000CD54000010B588B0EFF30584D7
:1057400014B1822008B010BDEFF3148404F00304F8
:10575000022C1DD0032C14D0012C16D008AC84F3DD
:1057600009880F4C2478E40716D5022484F31488A2
:10577000BFF34F8FBFF36F8FDFF828C000DF08B093
:1057800010BD074C2478E407F6D5FF2008B010BD03
:10579000034C2478E407EFD4032484F31488E7E768
:1057A00068B20000CD550000002833D0F8B5066877
:1057B00076B34768FB1C062B2AD8C26804460D4600
:1057C000BAB11146144800F0F9FB064600B362680E
:1057D000E1682068043242EA01212B46324601F09A
:1057E0002BF9044660B931460B4800F00FFC204607
:1057F000F8BD0B463046391D01F01EF9044638B19C
:10580000013C064B064A53F82400836A5A63F8BDEC
:105810000020F8BD00207047583100201C3D0020BA
:10582000B554000008B501F083F818B10138024BF7
:1058300053F8200008BD00BF1C3D002098B183072D
:1058400011D103787BB9C18C10B571B9C0780C4601
:1058500001F07AF9FF280ED01CB12146074800F06C
:10586000D5FB002010BD80207047C46AC07801F0CD
:105870006BF9FF28F0D1812010BD00BF5831002006
:10588000F8B5EFF305846CBBEFF31484E40702D49E
:105890001D4C24781CB1DFF880C000DFF8BD08B3D0
:1058A0000668FEB14768FB1C062B1BD8C2680D4674
:1058B0000446CAB11146154800F080FB064688B17F
:1058C0006268E1682068043242EA01212B463246D0
:1058D00001F0B2F8044678B931460C4800F096FB66
:1058E0002046F8BD0020F8BD0B463046391D01F0BA
:1058F000A3F804460028F5D0601E054B054A53F86E
:105900002000836A5A63F8BD2D40002058310020E2
:105910001C3D0020B5540000A957000010B5EFF35E
:1059200005841CB9DFF808C000DF10BD002010BDE1
:105930002558000010B5EFF305840CB1822010BD8E
:10594000DFF804C000DF10BD3D58000098B130B44E
:1059500004689CB143689BB101290DD8094C2468A7
:1059600064B11C7944B9012558611C6059711A61F0
:105970001D71184630BC70470020FBE72046F9E750
:105980001846F7E7283D0020820703D110B119B966
:105990008620704780207047F8B52B4B1A6800238B
:1059A00012F1FF3643F1FF3704464FF47A70E0FB03
:1059B000016730463946FBF711FB2379012B10D0E4
:1059C000022B0CD1214D2B684BB19C4237D019468C
:1059D00002E0944226D011460A68002AF9D18120BB
:1059E000F8BD1A4DE06002222B6822715BB1996804
:1059F000884204D20EE0916881420DD813461A689D
:105A0000401A002AF7D10022A0602260A3B11C60D6
:105A10000020F8BD1A460023A06091682260081A91
:105A20009060F3E722680A602268002ADED0966858
:105A3000A16831449160D9E72C601846F8BD22680E
:105A40002A601346F1E700BF6CB20000304000202E
:105A5000830704D130B14369016918687047002099
:105A600001467047014670472DE9F04F294F3C68C9
:105A700083B054B3A668DFF8A080013EA660B946A3
:105A80004FF0000A0EBBD8F8003025683D6023B106
:105A900093F800B0BBF1010F02D00420FCF764FFC3
:105AA0001846019300F09EFB019B0028F5D0184694
:105AB000214600F09BFB6379012B09D084F804B0E8
:105AC0001DB1AE682C46002EDDD003B0BDE8F08FCE
:105AD000D9F80000E26858B18168914204D90DE01C
:105AE000996891420CD818460368521A002BF7D1D6
:105AF000C4F800A0A26050B10460E1E7034630465C
:105B0000A260996823608A1A9A600028F4D13C60E8
:105B1000D6E700BF304000204C3D002030B5EFF309
:105B2000058404BBEFF31484E40702D4114C2478F9
:105B30001CB1DFF848C000DF30BD98B10368A3B1E5
:105B4000436893B101290CD80B4D2D687DB11D79A7
:105B50003DB9012459711C7158611D601A611846C4
:105B600030BD204630BD002030BD184630BD28462F
:105B700030BD00BF2D400020283D00204D590000C1
:105B800010B5EFF305840CB1822010BDDFF804C01E
:105B900000DF10BD8959000008B50C4E3568EFF3E1
:105BA00005844FF0FF312846002CF8D1DFF820C0E3
:105BB00000DF1028F2D10846DFF818C000DF0446E5
:105BC0000028EBD00846A047E8E700BF4C3D002086
:105BD000A95D0000515A000078B183070DD1037808
:105BE0005BB90B0C1B0443B910B50B46048BC17891
:105BF00098B200F015FD204610BD4FF000407047F0
:105C000078B183070DD103785BB90B0C1B0443B942
:105C100010B50B46048BC17898B200F02DFD2046DC
:105C200010BD4FF0004070472DE9F0414FEA104899
:105C30004FEA0848B8F1000F37D10D46044698B135
:105C400080B2002937D1012200F0C4FC02284FD0D5
:105C5000002D0CBF00234023002425461846414652
:105C60002A462B46BDE8F081002938D04B1C4CD089
:105C7000294B994244D8294B1A684FF6FE714FF4CC
:105C80007A73501E03FB0505B5FBF2F58D423AD938
:105C900000224FF6FF7000F09DFC02282BD1204B14
:105CA0001A680823B2F81A80D6E7002186200A462F
:105CB0000B46BDE8F0814A1C2AD0174B99421CD8EC
:105CC000164B1E684FF47A72731E4FF6FE7102FB7C
:105CD0000533B3FBF6F38B42B5D899B2B3E742462E
:105CE0004FF6FF7000F076FC0228D8D04346B3E7A9
:105CF000A0460823B0E74023AEE74FF6FE71A2E7C7
:105D00004FF6FE71C4E7A9B2C2E74FF6FF71BFE7D5
:105D10004FF6FF7197E700BF00093D006CB200002D
:105D20007040002070B5EFF305851DB9DFF830C075
